{
  "contractName": "Dao",
  "abi": [
    {
      "anonymous": false,
      "inputs": [
        {
          "indexed": false,
          "internalType": "uint256",
          "name": "",
          "type": "uint256"
        }
      ],
      "name": "GroupActivated",
      "type": "event"
    },
    {
      "anonymous": false,
      "inputs": [
        {
          "indexed": false,
          "internalType": "uint256",
          "name": "",
          "type": "uint256"
        }
      ],
      "name": "GroupCreated",
      "type": "event"
    },
    {
      "anonymous": false,
      "inputs": [
        {
          "indexed": false,
          "internalType": "uint256",
          "name": "",
          "type": "uint256"
        }
      ],
      "name": "GroupDisabled",
      "type": "event"
    },
    {
      "anonymous": false,
      "inputs": [
        {
          "indexed": false,
          "internalType": "uint256",
          "name": "",
          "type": "uint256"
        },
        {
          "indexed": false,
          "internalType": "uint256",
          "name": "",
          "type": "uint256"
        }
      ],
      "name": "ProposalCreated",
      "type": "event"
    },
    {
      "inputs": [
        {
          "internalType": "uint256",
          "name": "",
          "type": "uint256"
        }
      ],
      "name": "groupArray",
      "outputs": [
        {
          "internalType": "uint256",
          "name": "id",
          "type": "uint256"
        },
        {
          "internalType": "string",
          "name": "name",
          "type": "string"
        },
        {
          "internalType": "address",
          "name": "creator",
          "type": "address"
        },
        {
          "internalType": "string",
          "name": "description",
          "type": "string"
        },
        {
          "internalType": "string",
          "name": "image",
          "type": "string"
        },
        {
          "internalType": "uint256",
          "name": "proposalCount",
          "type": "uint256"
        },
        {
          "internalType": "bool",
          "name": "isActive",
          "type": "bool"
        }
      ],
      "stateMutability": "view",
      "type": "function",
      "constant": true
    },
    {
      "inputs": [],
      "name": "groupIdTracker",
      "outputs": [
        {
          "internalType": "uint256",
          "name": "",
          "type": "uint256"
        }
      ],
      "stateMutability": "view",
      "type": "function",
      "constant": true
    },
    {
      "inputs": [
        {
          "internalType": "uint256",
          "name": "_groupId",
          "type": "uint256"
        },
        {
          "internalType": "string",
          "name": "_title",
          "type": "string"
        },
        {
          "internalType": "string",
          "name": "_description",
          "type": "string"
        },
        {
          "internalType": "uint256",
          "name": "_proposalStart",
          "type": "uint256"
        },
        {
          "internalType": "uint256",
          "name": "_proposalEnd",
          "type": "uint256"
        },
        {
          "components": [
            {
              "internalType": "uint256",
              "name": "votes",
              "type": "uint256"
            },
            {
              "internalType": "string",
              "name": "description",
              "type": "string"
            }
          ],
          "internalType": "struct Dao.Choice[]",
          "name": "_choices",
          "type": "tuple[]"
        }
      ],
      "name": "createProposal",
      "outputs": [],
      "stateMutability": "nonpayable",
      "type": "function"
    },
    {
      "inputs": [
        {
          "internalType": "uint256",
          "name": "groupId",
          "type": "uint256"
        }
      ],
      "name": "getProposalCount",
      "outputs": [
        {
          "internalType": "uint256",
          "name": "",
          "type": "uint256"
        }
      ],
      "stateMutability": "view",
      "type": "function",
      "constant": true
    },
    {
      "inputs": [
        {
          "internalType": "uint256",
          "name": "_groupId",
          "type": "uint256"
        },
        {
          "internalType": "uint256",
          "name": "_startIndex",
          "type": "uint256"
        },
        {
          "internalType": "uint256",
          "name": "_numberOfProposals",
          "type": "uint256"
        }
      ],
      "name": "getProposals",
      "outputs": [
        {
          "components": [
            {
              "internalType": "uint256",
              "name": "id",
              "type": "uint256"
            },
            {
              "internalType": "uint256",
              "name": "groupId",
              "type": "uint256"
            },
            {
              "internalType": "string",
              "name": "title",
              "type": "string"
            },
            {
              "internalType": "string",
              "name": "description",
              "type": "string"
            },
            {
              "internalType": "address",
              "name": "creator",
              "type": "address"
            },
            {
              "internalType": "uint256",
              "name": "proposalStart",
              "type": "uint256"
            },
            {
              "internalType": "uint256",
              "name": "proposalEnd",
              "type": "uint256"
            }
          ],
          "internalType": "struct Dao.Proposal[]",
          "name": "",
          "type": "tuple[]"
        },
        {
          "components": [
            {
              "internalType": "bool",
              "name": "voted",
              "type": "bool"
            },
            {
              "internalType": "uint256",
              "name": "indexChoice",
              "type": "uint256"
            }
          ],
          "internalType": "struct Dao.Vote[]",
          "name": "",
          "type": "tuple[]"
        }
      ],
      "stateMutability": "view",
      "type": "function",
      "constant": true
    },
    {
      "inputs": [
        {
          "internalType": "uint256",
          "name": "groupId",
          "type": "uint256"
        },
        {
          "internalType": "uint256",
          "name": "proposalId",
          "type": "uint256"
        }
      ],
      "name": "getProposal",
      "outputs": [
        {
          "components": [
            {
              "internalType": "uint256",
              "name": "id",
              "type": "uint256"
            },
            {
              "internalType": "uint256",
              "name": "groupId",
              "type": "uint256"
            },
            {
              "internalType": "string",
              "name": "title",
              "type": "string"
            },
            {
              "internalType": "string",
              "name": "description",
              "type": "string"
            },
            {
              "internalType": "address",
              "name": "creator",
              "type": "address"
            },
            {
              "internalType": "uint256",
              "name": "proposalStart",
              "type": "uint256"
            },
            {
              "internalType": "uint256",
              "name": "proposalEnd",
              "type": "uint256"
            }
          ],
          "internalType": "struct Dao.Proposal",
          "name": "",
          "type": "tuple"
        },
        {
          "components": [
            {
              "internalType": "bool",
              "name": "voted",
              "type": "bool"
            },
            {
              "internalType": "uint256",
              "name": "indexChoice",
              "type": "uint256"
            }
          ],
          "internalType": "struct Dao.Vote",
          "name": "",
          "type": "tuple"
        }
      ],
      "stateMutability": "view",
      "type": "function",
      "constant": true
    },
    {
      "inputs": [
        {
          "internalType": "uint256",
          "name": "_groupId",
          "type": "uint256"
        },
        {
          "internalType": "uint256",
          "name": "_proposalId",
          "type": "uint256"
        }
      ],
      "name": "getChoice",
      "outputs": [
        {
          "components": [
            {
              "internalType": "uint256",
              "name": "votes",
              "type": "uint256"
            },
            {
              "internalType": "string",
              "name": "description",
              "type": "string"
            }
          ],
          "internalType": "struct Dao.Choice[]",
          "name": "",
          "type": "tuple[]"
        }
      ],
      "stateMutability": "view",
      "type": "function",
      "constant": true
    },
    {
      "inputs": [
        {
          "internalType": "uint256",
          "name": "_groupId",
          "type": "uint256"
        },
        {
          "internalType": "uint256",
          "name": "_proposalId",
          "type": "uint256"
        },
        {
          "internalType": "uint256",
          "name": "_choiceId",
          "type": "uint256"
        }
      ],
      "name": "vote",
      "outputs": [],
      "stateMutability": "nonpayable",
      "type": "function"
    },
    {
      "inputs": [
        {
          "internalType": "uint256",
          "name": "_groupId",
          "type": "uint256"
        },
        {
          "internalType": "uint256",
          "name": "_proposalId",
          "type": "uint256"
        }
      ],
      "name": "getVote",
      "outputs": [
        {
          "components": [
            {
              "internalType": "bool",
              "name": "voted",
              "type": "bool"
            },
            {
              "internalType": "uint256",
              "name": "indexChoice",
              "type": "uint256"
            }
          ],
          "internalType": "struct Dao.Vote",
          "name": "",
          "type": "tuple"
        }
      ],
      "stateMutability": "view",
      "type": "function",
      "constant": true
    },
    {
      "inputs": [
        {
          "internalType": "uint256",
          "name": "_groupId",
          "type": "uint256"
        },
        {
          "internalType": "uint256",
          "name": "_proposalId",
          "type": "uint256"
        }
      ],
      "name": "removeVote",
      "outputs": [],
      "stateMutability": "nonpayable",
      "type": "function"
    },
    {
      "inputs": [
        {
          "internalType": "string",
          "name": "_name",
          "type": "string"
        },
        {
          "internalType": "string",
          "name": "_description",
          "type": "string"
        },
        {
          "internalType": "string",
          "name": "_groupImage",
          "type": "string"
        }
      ],
      "name": "newGroup",
      "outputs": [],
      "stateMutability": "nonpayable",
      "type": "function"
    },
    {
      "inputs": [
        {
          "internalType": "uint256",
          "name": "_groupId",
          "type": "uint256"
        }
      ],
      "name": "disableGroup",
      "outputs": [],
      "stateMutability": "nonpayable",
      "type": "function"
    },
    {
      "inputs": [
        {
          "internalType": "uint256",
          "name": "_groupId",
          "type": "uint256"
        }
      ],
      "name": "activateGroup",
      "outputs": [],
      "stateMutability": "nonpayable",
      "type": "function"
    },
    {
      "inputs": [
        {
          "internalType": "uint256",
          "name": "_startIndex",
          "type": "uint256"
        },
        {
          "internalType": "uint256",
          "name": "_numberOfGroups",
          "type": "uint256"
        }
      ],
      "name": "getGroup",
      "outputs": [
        {
          "components": [
            {
              "internalType": "uint256",
              "name": "id",
              "type": "uint256"
            },
            {
              "internalType": "string",
              "name": "name",
              "type": "string"
            },
            {
              "internalType": "address",
              "name": "creator",
              "type": "address"
            },
            {
              "internalType": "string",
              "name": "description",
              "type": "string"
            },
            {
              "internalType": "string",
              "name": "image",
              "type": "string"
            },
            {
              "internalType": "uint256",
              "name": "proposalCount",
              "type": "uint256"
            },
            {
              "internalType": "bool",
              "name": "isActive",
              "type": "bool"
            }
          ],
          "internalType": "struct Dao.Group[]",
          "name": "",
          "type": "tuple[]"
        }
      ],
      "stateMutability": "view",
      "type": "function",
      "constant": true
    }
  ],
  "bytecode": "0x6080604052600060055534801561001557600080fd5b5061441f806100256000396000f3fe608060405234801561001057600080fd5b50600436106100ea5760003560e01c8063874a640a1161008c57806398cc49151161006657806398cc49151461026e578063aba21009146102a4578063e3ef7dd0146102d5578063f73b9f22146102f1576100ea565b8063874a640a146102185780638a6655d614610234578063927f10e614610250576100ea565b806345bdbbc0116100c857806345bdbbc01461016c57806349330cb81461019c5780634936c0f6146101cc5780636a0b406c146101fc576100ea565b80630a1040a7146100ef5780632a2eaf311461010b578063426dd27c1461013c575b600080fd5b61010960048036038101906101049190612f3a565b61030d565b005b61012560048036038101906101209190612f7a565b610832565b6040516101339291906137ef565b60405180910390f35b61015660048036038101906101519190612f3a565b610cd5565b60405161016391906137cd565b60405180910390f35b61018660048036038101906101819190612f3a565b6110e0565b60405161019391906137ab565b60405180910390f35b6101b660048036038101906101b19190612f3a565b611206565b6040516101c39190613a96565b60405180910390f35b6101e660048036038101906101e19190612e2c565b6113c2565b6040516101f39190613ab1565b60405180910390f35b61021660048036038101906102119190612d85565b61148f565b005b610232600480360381019061022d9190612e2c565b611756565b005b61024e60048036038101906102499190612f7a565b6118d1565b005b610258611d8d565b6040516102659190613ab1565b60405180910390f35b61028860048036038101906102839190612e2c565b611d93565b60405161029b9796959493929190613acc565b60405180910390f35b6102be60048036038101906102b99190612f3a565b611faa565b6040516102cc929190613a66565b60405180910390f35b6102ef60048036038101906102ea9190612e59565b612357565b005b61030b60048036038101906103069190612e2c565b612869565b005b81600480549050811115610356576040517f08c379a000000000000000000000000000000000000000000000000000000000815260040161034d90613826565b60405180910390fd5b6003600082815260200190815260200160002060060160009054906101000a900460ff166103b9576040517f08c379a00000000000000000000000000000000000000000000000000000000081526004016103b090613846565b60405180910390fd5b828260011515600080848152602001908152602001600020600083815260200190815260200160002060003373ffffffffffffffffffffffffffffffffffffffff1673ffffffffffffffffffffffffffffffffffffffff16815260200190815260200160002060000160009054906101000a900460ff16151514610472576040517f08c379a000000000000000000000000000000000000000000000000000000000815260040161046990613986565b60405180910390fd5b84844260026000848152602001908152602001600020828154811061049a57610499613f54565b5b90600052602060002090600702016005015411156104ed576040517f08c379a00000000000000000000000000000000000000000000000000000000081526004016104e4906138e6565b60405180910390fd5b4260026000848152602001908152602001600020828154811061051357610512613f54565b5b9060005260206000209060070201600601541015610566576040517f08c379a000000000000000000000000000000000000000000000000000000000815260040161055d906139c6565b60405180910390fd5b6000806000898152602001908152602001600020600088815260200190815260200160002060003373ffffffffffffffffffffffffffffffffffffffff1673ffffffffffffffffffffffffffffffffffffffff1681526020019081526020016000206001015490506000600160008a81526020019081526020016000206000898152602001908152602001600020828154811061060657610605613f54565b5b90600052602060002090600202016040518060400160405290816000820154815260200160018201805461063990613e4a565b80601f016020809104026020016040519081016040528092919081815260200182805461066590613e4a565b80156106b25780601f10610687576101008083540402835291602001916106b2565b820191906000526020600020905b81548152906001019060200180831161069557829003601f168201915b50505050508152505090508060000180518091906106cf90613e20565b8152505080600160008b815260200190815260200160002060008a8152602001908152602001600020838154811061070a57610709613f54565b5b906000526020600020906002020160008201518160000155602082015181600101908051906020019061073e9291906129e4565b5090505060008060008b815260200190815260200160002060008a815260200190815260200160002060003373ffffffffffffffffffffffffffffffffffffffff1673ffffffffffffffffffffffffffffffffffffffff1681526020019081526020016000206001018190555060008060008b815260200190815260200160002060008a815260200190815260200160002060003373ffffffffffffffffffffffffffffffffffffffff1673ffffffffffffffffffffffffffffffffffffffff16815260200190815260200160002060000160006101000a81548160ff021916908315150217905550505050505050505050565b606080848484600082101561087c576040517f08c379a0000000000000000000000000000000000000000000000000000000008152600401610873906138a6565b60405180910390fd5b600081116108bf576040517f08c379a00000000000000000000000000000000000000000000000000000000081526004016108b690613906565b60405180910390fd5b808260026000868152602001908152602001600020805490506108e29190613d62565b1015610923576040517f08c379a000000000000000000000000000000000000000000000000000000000815260040161091a906138c6565b60405180910390fd5b600086886109319190613d0c565b90506000808867ffffffffffffffff8111156109505761094f613f83565b5b60405190808252806020026020018201604052801561098957816020015b610976612a6a565b81526020019060019003908161096e5790505b50905060008967ffffffffffffffff8111156109a8576109a7613f83565b5b6040519080825280602002602001820160405280156109e157816020015b6109ce612abd565b8152602001906001900390816109c65790505b50905060008b90505b84811015610cbf57600260008e81526020019081526020016000208181548110610a1757610a16613f54565b5b90600052602060002090600702016040518060e00160405290816000820154815260200160018201548152602001600282018054610a5490613e4a565b80601f0160208091040260200160405190810160405280929190818152602001828054610a8090613e4a565b8015610acd5780601f10610aa257610100808354040283529160200191610acd565b820191906000526020600020905b815481529060010190602001808311610ab057829003601f168201915b50505050508152602001600382018054610ae690613e4a565b80601f0160208091040260200160405190810160405280929190818152602001828054610b1290613e4a565b8015610b5f5780601f10610b3457610100808354040283529160200191610b5f565b820191906000526020600020905b815481529060010190602001808311610b4257829003601f168201915b505050505081526020016004820160009054906101000a900473ffffffffffffffffffffffffffffffffffffffff1673ffffffffffffffffffffffffffffffffffffffff1673ffffffffffffffffffffffffffffffffffffffff16815260200160058201548152602001600682015481525050838581518110610be557610be4613f54565b5b60200260200101819052506000808e8152602001908152602001600020600082815260200190815260200160002060003373ffffffffffffffffffffffffffffffffffffffff1673ffffffffffffffffffffffffffffffffffffffff1681526020019081526020016000206040518060400160405290816000820160009054906101000a900460ff16151515158152602001600182015481525050828581518110610c9357610c92613f54565b5b60200260200101819052508380610ca990613ead565b9450508080610cb790613ead565b9150506109ea565b5081819850985050505050505050935093915050565b606082826000821015610d1d576040517f08c379a0000000000000000000000000000000000000000000000000000000008152600401610d1490613866565b60405180910390fd5b60008111610d60576040517f08c379a0000000000000000000000000000000000000000000000000000000008152600401610d5790613a06565b60405180910390fd5b8082600480549050610d729190613d62565b1015610db3576040517f08c379a0000000000000000000000000000000000000000000000000000000008152600401610daa90613946565b60405180910390fd5b60008486610dc19190613d0c565b90506000808667ffffffffffffffff811115610de057610ddf613f83565b5b604051908082528060200260200182016040528015610e1957816020015b610e06612ad9565b815260200190600190039081610dfe5790505b50905060008890505b838110156110d15760048181548110610e3e57610e3d613f54565b5b90600052602060002090600702016040518060e001604052908160008201548152602001600182018054610e7190613e4a565b80601f0160208091040260200160405190810160405280929190818152602001828054610e9d90613e4a565b8015610eea5780601f10610ebf57610100808354040283529160200191610eea565b820191906000526020600020905b815481529060010190602001808311610ecd57829003601f168201915b505050505081526020016002820160009054906101000a900473ffffffffffffffffffffffffffffffffffffffff1673ffffffffffffffffffffffffffffffffffffffff1673ffffffffffffffffffffffffffffffffffffffff168152602001600382018054610f5990613e4a565b80601f0160208091040260200160405190810160405280929190818152602001828054610f8590613e4a565b8015610fd25780601f10610fa757610100808354040283529160200191610fd2565b820191906000526020600020905b815481529060010190602001808311610fb557829003601f168201915b50505050508152602001600482018054610feb90613e4a565b80601f016020809104026020016040519081016040528092919081815260200182805461101790613e4a565b80156110645780601f1061103957610100808354040283529160200191611064565b820191906000526020600020905b81548152906001019060200180831161104757829003601f168201915b50505050508152602001600582015481526020016006820160009054906101000a900460ff1615151515815250508284815181106110a5576110a4613f54565b5b602002602001018190525082806110bb90613ead565b93505080806110c990613ead565b915050610e22565b50809550505050505092915050565b60606000600160008581526020019081526020016000206000848152602001908152602001600020805480602002602001604051908101604052809291908181526020016000905b828210156111f657838290600052602060002090600202016040518060400160405290816000820154815260200160018201805461116590613e4a565b80601f016020809104026020016040519081016040528092919081815260200182805461119190613e4a565b80156111de5780601f106111b3576101008083540402835291602001916111de565b820191906000526020600020905b8154815290600101906020018083116111c157829003601f168201915b50505050508152505081526020019060010190611128565b5050505090508091505092915050565b61120e612abd565b82600480549050811115611257576040517f08c379a000000000000000000000000000000000000000000000000000000000815260040161124e90613826565b60405180910390fd5b6003600082815260200190815260200160002060060160009054906101000a900460ff166112ba576040517f08c379a00000000000000000000000000000000000000000000000000000000081526004016112b190613846565b60405180910390fd5b83836001816112c99190613d0c565b60026000848152602001908152602001600020805490501015611321576040517f08c379a0000000000000000000000000000000000000000000000000000000008152600401611318906139e6565b60405180910390fd5b6000806000888152602001908152602001600020600087815260200190815260200160002060003373ffffffffffffffffffffffffffffffffffffffff1673ffffffffffffffffffffffffffffffffffffffff1681526020019081526020016000206040518060400160405290816000820160009054906101000a900460ff1615151515815260200160018201548152505090508094505050505092915050565b60008160048054905081111561140d576040517f08c379a000000000000000000000000000000000000000000000000000000000815260040161140490613826565b60405180910390fd5b6003600082815260200190815260200160002060060160009054906101000a900460ff16611470576040517f08c379a000000000000000000000000000000000000000000000000000000000815260040161146790613846565b60405180910390fd5b6003600084815260200190815260200160002060050154915050919050565b611497612ad9565b33816040019073ffffffffffffffffffffffffffffffffffffffff16908173ffffffffffffffffffffffffffffffffffffffff168152505083816020018190525060008160a001818152505082816060018190525081816080018190525060055481600001818152505060018160c00190151590811515815250508060036000600554815260200190815260200160002060008201518160000155602082015181600101908051906020019061154e9291906129e4565b5060408201518160020160006101000a81548173ffffffffffffffffffffffffffffffffffffffff021916908373ffffffffffffffffffffffffffffffffffffffff16021790555060608201518160030190805190602001906115b29291906129e4565b5060808201518160040190805190602001906115cf9291906129e4565b5060a0820151816005015560c08201518160060160006101000a81548160ff021916908315150217905550905050600481908060018154018082558091505060019003906000526020600020906007020160009091909190915060008201518160000155602082015181600101908051906020019061164f9291906129e4565b5060408201518160020160006101000a81548173ffffffffffffffffffffffffffffffffffffffff021916908373ffffffffffffffffffffffffffffffffffffffff16021790555060608201518160030190805190602001906116b39291906129e4565b5060808201518160040190805190602001906116d09291906129e4565b5060a0820151816005015560c08201518160060160006101000a81548160ff02191690831515021790555050506005600081548092919061171090613ead565b91905055507ff0adfb94eab6daf835deb69c5738fe636150c3dfd08094a76f39b963dc8cb05a81600001516040516117489190613ab1565b60405180910390a150505050565b806003600082815260200190815260200160002060020160009054906101000a900473ffffffffffffffffffffffffffffffffffffffff1673ffffffffffffffffffffffffffffffffffffffff163373ffffffffffffffffffffffffffffffffffffffff16146117fb576040517f08c379a00000000000000000000000000000000000000000000000000000000081526004016117f2906139a6565b60405180910390fd5b81600015156003600083815260200190815260200160002060060160009054906101000a900460ff16151514611866576040517f08c379a000000000000000000000000000000000000000000000000000000000815260040161185d90613966565b60405180910390fd5b60016003600085815260200190815260200160002060060160006101000a81548160ff0219169083151502179055507febefe55be640961855d7fd4e391c743a58d0ee08196320fead0e6d832d33d3b8836040516118c49190613ab1565b60405180910390a1505050565b8260048054905081111561191a576040517f08c379a000000000000000000000000000000000000000000000000000000000815260040161191190613826565b60405180910390fd5b6003600082815260200190815260200160002060060160009054906101000a900460ff1661197d576040517f08c379a000000000000000000000000000000000000000000000000000000000815260040161197490613846565b60405180910390fd5b8383426002600084815260200190815260200160002082815481106119a5576119a4613f54565b5b90600052602060002090600702016005015411156119f8576040517f08c379a00000000000000000000000000000000000000000000000000000000081526004016119ef906138e6565b60405180910390fd5b42600260008481526020019081526020016000208281548110611a1e57611a1d613f54565b5b9060005260206000209060070201600601541015611a71576040517f08c379a0000000000000000000000000000000000000000000000000000000008152600401611a68906139c6565b60405180910390fd5b858560001515600080848152602001908152602001600020600083815260200190815260200160002060003373ffffffffffffffffffffffffffffffffffffffff1673ffffffffffffffffffffffffffffffffffffffff16815260200190815260200160002060000160009054906101000a900460ff16151514611b2a576040517f08c379a0000000000000000000000000000000000000000000000000000000008152600401611b2190613a26565b60405180910390fd5b6000600160008a815260200190815260200160002060008981526020019081526020016000208781548110611b6257611b61613f54565b5b906000526020600020906002020160405180604001604052908160008201548152602001600182018054611b9590613e4a565b80601f0160208091040260200160405190810160405280929190818152602001828054611bc190613e4a565b8015611c0e5780601f10611be357610100808354040283529160200191611c0e565b820191906000526020600020905b815481529060010190602001808311611bf157829003601f168201915b5050505050815250509050806000018051809190611c2b90613ead565b8152505080600160008b815260200190815260200160002060008a81526020019081526020016000208881548110611c6657611c65613f54565b5b9060005260206000209060020201600082015181600001556020820151816001019080519060200190611c9a9291906129e4565b50905050866000808b815260200190815260200160002060008a815260200190815260200160002060003373ffffffffffffffffffffffffffffffffffffffff1673ffffffffffffffffffffffffffffffffffffffff1681526020019081526020016000206001018190555060016000808b815260200190815260200160002060008a815260200190815260200160002060003373ffffffffffffffffffffffffffffffffffffffff1673ffffffffffffffffffffffffffffffffffffffff16815260200190815260200160002060000160006101000a81548160ff021916908315150217905550505050505050505050565b60055481565b60048181548110611da357600080fd5b9060005260206000209060070201600091509050806000015490806001018054611dcc90613e4a565b80601f0160208091040260200160405190810160405280929190818152602001828054611df890613e4a565b8015611e455780601f10611e1a57610100808354040283529160200191611e45565b820191906000526020600020905b815481529060010190602001808311611e2857829003601f168201915b5050505050908060020160009054906101000a900473ffffffffffffffffffffffffffffffffffffffff1690806003018054611e8090613e4a565b80601f0160208091040260200160405190810160405280929190818152602001828054611eac90613e4a565b8015611ef95780601f10611ece57610100808354040283529160200191611ef9565b820191906000526020600020905b815481529060010190602001808311611edc57829003601f168201915b505050505090806004018054611f0e90613e4a565b80601f0160208091040260200160405190810160405280929190818152602001828054611f3a90613e4a565b8015611f875780601f10611f5c57610100808354040283529160200191611f87565b820191906000526020600020905b815481529060010190602001808311611f6a57829003601f168201915b5050505050908060050154908060060160009054906101000a900460ff16905087565b611fb2612a6a565b611fba612abd565b83600480549050811115612003576040517f08c379a0000000000000000000000000000000000000000000000000000000008152600401611ffa90613826565b60405180910390fd5b6003600082815260200190815260200160002060060160009054906101000a900460ff16612066576040517f08c379a000000000000000000000000000000000000000000000000000000000815260040161205d90613846565b60405180910390fd5b84846001816120759190613d0c565b600260008481526020019081526020016000208054905010156120cd576040517f08c379a00000000000000000000000000000000000000000000000000000000081526004016120c4906139e6565b60405180910390fd5b60006002600089815260200190815260200160002087815481106120f4576120f3613f54565b5b90600052602060002090600702016040518060e0016040529081600082015481526020016001820154815260200160028201805461213190613e4a565b80601f016020809104026020016040519081016040528092919081815260200182805461215d90613e4a565b80156121aa5780601f1061217f576101008083540402835291602001916121aa565b820191906000526020600020905b81548152906001019060200180831161218d57829003601f168201915b505050505081526020016003820180546121c390613e4a565b80601f01602080910402602001604051908101604052809291908181526020018280546121ef90613e4a565b801561223c5780601f106122115761010080835404028352916020019161223c565b820191906000526020600020905b81548152906001019060200180831161221f57829003601f168201915b505050505081526020016004820160009054906101000a900473ffffffffffffffffffffffffffffffffffffffff1673ffffffffffffffffffffffffffffffffffffffff1673ffffffffffffffffffffffffffffffffffffffff16815260200160058201548152602001600682015481525050905060008060008a8152602001908152602001600020600089815260200190815260200160002060003373ffffffffffffffffffffffffffffffffffffffff1673ffffffffffffffffffffffffffffffffffffffff1681526020019081526020016000206040518060400160405290816000820160009054906101000a900460ff16151515158152602001600182015481525050905081819650965050505050509250929050565b856004805490508111156123a0576040517f08c379a000000000000000000000000000000000000000000000000000000000815260040161239790613826565b60405180910390fd5b6003600082815260200190815260200160002060060160009054906101000a900460ff16612403576040517f08c379a00000000000000000000000000000000000000000000000000000000081526004016123fa90613846565b60405180910390fd5b828410612445576040517f08c379a000000000000000000000000000000000000000000000000000000000815260040161243c90613926565b60405180910390fd5b6005825110612489576040517f08c379a000000000000000000000000000000000000000000000000000000000815260040161248090613886565b60405180910390fd5b612491612a6a565b60036000898152602001908152602001600020600501548160000181815250506003600089815260200190815260200160002060050160008154809291906124d890613ead565b9190505550600360008981526020019081526020016000206004898154811061250457612503613f54565b5b906000526020600020906007020160008201548160000155600182018160010190805461253090613e4a565b61253b929190612b2e565b506002820160009054906101000a900473ffffffffffffffffffffffffffffffffffffffff168160020160006101000a81548173ffffffffffffffffffffffffffffffffffffffff021916908373ffffffffffffffffffffffffffffffffffffffff16021790555060038201816003019080546125b790613e4a565b6125c2929190612b2e565b5060048201816004019080546125d790613e4a565b6125e2929190612b2e565b50600582015481600501556006820160009054906101000a900460ff168160060160006101000a81548160ff02191690831515021790555090505086816040018190525085816060018190525033816080019073ffffffffffffffffffffffffffffffffffffffff16908173ffffffffffffffffffffffffffffffffffffffff1681525050838160c0018181525050848160a00181815250508781602001818152505060026000898152602001908152602001600020819080600181540180825580915050600190039060005260206000209060070201600090919091909150600082015181600001556020820151816001015560408201518160020190805190602001906126f29291906129e4565b50606082015181600301908051906020019061270f9291906129e4565b5060808201518160040160006101000a81548173ffffffffffffffffffffffffffffffffffffffff021916908373ffffffffffffffffffffffffffffffffffffffff16021790555060a0820151816005015560c08201518160060155505060005b835181101561282157600160008a81526020019081526020016000206000836000015181526020019081526020016000208482815181106127b4576127b3613f54565b5b6020026020010151908060018154018082558091505060019003906000526020600020906002020160009091909190915060008201518160000155602082015181600101908051906020019061280b9291906129e4565b505050808061281990613ead565b915050612770565b507ffcf3b1aa65a464cef2889608f99e8b8c0f680a4be6c2acb9d961c536a5a9294b888260000151604051612857929190613b50565b60405180910390a15050505050505050565b806003600082815260200190815260200160002060020160009054906101000a900473ffffffffffffffffffffffffffffffffffffffff1673ffffffffffffffffffffffffffffffffffffffff163373ffffffffffffffffffffffffffffffffffffffff161461290e576040517f08c379a0000000000000000000000000000000000000000000000000000000008152600401612905906139a6565b60405180910390fd5b81600115156003600083815260200190815260200160002060060160009054906101000a900460ff16151514612979576040517f08c379a000000000000000000000000000000000000000000000000000000000815260040161297090613a46565b60405180910390fd5b60006003600085815260200190815260200160002060060160006101000a81548160ff0219169083151502179055507fd80e1e836ad428e388ec8f855edd512d56d58bf942ac36d08934a3d49ec3b301836040516129d79190613ab1565b60405180910390a1505050565b8280546129f090613e4a565b90600052602060002090601f016020900481019282612a125760008555612a59565b82601f10612a2b57805160ff1916838001178555612a59565b82800160010185558215612a59579182015b82811115612a58578251825591602001919060010190612a3d565b5b509050612a669190612bbb565b5090565b6040518060e0016040528060008152602001600081526020016060815260200160608152602001600073ffffffffffffffffffffffffffffffffffffffff16815260200160008152602001600081525090565b6040518060400160405280600015158152602001600081525090565b6040518060e001604052806000815260200160608152602001600073ffffffffffffffffffffffffffffffffffffffff1681526020016060815260200160608152602001600081526020016000151581525090565b828054612b3a90613e4a565b90600052602060002090601f016020900481019282612b5c5760008555612baa565b82601f10612b6d5780548555612baa565b82800160010185558215612baa57600052602060002091601f016020900482015b82811115612ba9578254825591600101919060010190612b8e565b5b509050612bb79190612bbb565b5090565b5b80821115612bd4576000816000905550600101612bbc565b5090565b6000612beb612be684613b9e565b613b79565b90508083825260208201905082856020860282011115612c0e57612c0d613fc1565b5b60005b85811015612c5c57813567ffffffffffffffff811115612c3457612c33613fb2565b5b808601612c418982612d04565b85526020850194506020840193505050600181019050612c11565b5050509392505050565b6000612c79612c7484613bca565b613b79565b905082815260208101848484011115612c9557612c94613fc6565b5b612ca0848285613dde565b509392505050565b600082601f830112612cbd57612cbc613fb2565b5b8135612ccd848260208601612bd8565b91505092915050565b600082601f830112612ceb57612cea613fb2565b5b8135612cfb848260208601612c66565b91505092915050565b600060408284031215612d1a57612d19613fb7565b5b612d246040613b79565b90506000612d3484828501612d70565b600083015250602082013567ffffffffffffffff811115612d5857612d57613fbc565b5b612d6484828501612cd6565b60208301525092915050565b600081359050612d7f816143d2565b92915050565b600080600060608486031215612d9e57612d9d613fd0565b5b600084013567ffffffffffffffff811115612dbc57612dbb613fcb565b5b612dc886828701612cd6565b935050602084013567ffffffffffffffff811115612de957612de8613fcb565b5b612df586828701612cd6565b925050604084013567ffffffffffffffff811115612e1657612e15613fcb565b5b612e2286828701612cd6565b9150509250925092565b600060208284031215612e4257612e41613fd0565b5b6000612e5084828501612d70565b91505092915050565b60008060008060008060c08789031215612e7657612e75613fd0565b5b6000612e8489828a01612d70565b965050602087013567ffffffffffffffff811115612ea557612ea4613fcb565b5b612eb189828a01612cd6565b955050604087013567ffffffffffffffff811115612ed257612ed1613fcb565b5b612ede89828a01612cd6565b9450506060612eef89828a01612d70565b9350506080612f0089828a01612d70565b92505060a087013567ffffffffffffffff811115612f2157612f20613fcb565b5b612f2d89828a01612ca8565b9150509295509295509295565b60008060408385031215612f5157612f50613fd0565b5b6000612f5f85828601612d70565b9250506020612f7085828601612d70565b9150509250929050565b600080600060608486031215612f9357612f92613fd0565b5b6000612fa186828701612d70565b9350506020612fb286828701612d70565b9250506040612fc386828701612d70565b9150509250925092565b6000612fd98383613502565b905092915050565b6000612fed838361353f565b905092915050565b600061300183836135e9565b905092915050565b6000613015838361372f565b60408301905092915050565b61302a81613d96565b82525050565b61303981613d96565b82525050565b600061304a82613c3b565b6130548185613ca6565b93508360208202850161306685613bfb565b8060005b858110156130a257848403895281516130838582612fcd565b945061308e83613c72565b925060208a0199505060018101905061306a565b50829750879550505050505092915050565b60006130bf82613c46565b6130c98185613cb7565b9350836020820285016130db85613c0b565b8060005b8581101561311757848403895281516130f88582612fe1565b945061310383613c7f565b925060208a019950506001810190506130df565b50829750879550505050505092915050565b600061313482613c51565b61313e8185613cc8565b93508360208202850161315085613c1b565b8060005b8581101561318c578484038952815161316d8582612ff5565b945061317883613c8c565b925060208a01995050600181019050613154565b50829750879550505050505092915050565b60006131a982613c5c565b6131b38185613cd9565b93506131be83613c2b565b8060005b838110156131ef5781516131d68882613009565b97506131e183613c99565b9250506001810190506131c2565b5085935050505092915050565b61320581613da8565b82525050565b61321481613da8565b82525050565b600061322582613c67565b61322f8185613cea565b935061323f818560208601613ded565b61324881613fd5565b840191505092915050565b600061325e82613c67565b6132688185613cfb565b9350613278818560208601613ded565b61328181613fd5565b840191505092915050565b6000613299602083613cfb565b91506132a482613fe6565b602082019050919050565b60006132bc602183613cfb565b91506132c78261400f565b604082019050919050565b60006132df601c83613cfb565b91506132ea8261405e565b602082019050919050565b6000613302604083613cfb565b915061330d82614087565b604082019050919050565b6000613325602283613cfb565b9150613330826140d6565b604082019050919050565b6000613348604283613cfb565b915061335382614125565b606082019050919050565b600061336b600e83613cfb565b91506133768261419a565b602082019050919050565b600061338e602083613cfb565b9150613399826141c3565b602082019050919050565b60006133b1601683613cfb565b91506133bc826141ec565b602082019050919050565b60006133d4603c83613cfb565b91506133df82614215565b604082019050919050565b60006133f7601483613cfb565b915061340282614264565b602082019050919050565b600061341a601383613cfb565b91506134258261428d565b602082019050919050565b600061343d603183613cfb565b9150613448826142b6565b604082019050919050565b6000613460600c83613cfb565b915061346b82614305565b602082019050919050565b6000613483601783613cfb565b915061348e8261432e565b602082019050919050565b60006134a6601d83613cfb565b91506134b182614357565b602082019050919050565b60006134c9601683613cfb565b91506134d482614380565b602082019050919050565b60006134ec601783613cfb565b91506134f7826143a9565b602082019050919050565b600060408301600083015161351a600086018261378d565b5060208301518482036020860152613532828261321a565b9150508091505092915050565b600060e083016000830151613557600086018261378d565b506020830151848203602086015261356f828261321a565b91505060408301516135846040860182613021565b506060830151848203606086015261359c828261321a565b915050608083015184820360808601526135b6828261321a565b91505060a08301516135cb60a086018261378d565b5060c08301516135de60c08601826131fc565b508091505092915050565b600060e083016000830151613601600086018261378d565b506020830151613614602086018261378d565b506040830151848203604086015261362c828261321a565b91505060608301518482036060860152613646828261321a565b915050608083015161365b6080860182613021565b5060a083015161366e60a086018261378d565b5060c083015161368160c086018261378d565b508091505092915050565b600060e0830160008301516136a4600086018261378d565b5060208301516136b7602086018261378d565b50604083015184820360408601526136cf828261321a565b915050606083015184820360608601526136e9828261321a565b91505060808301516136fe6080860182613021565b5060a083015161371160a086018261378d565b5060c083015161372460c086018261378d565b508091505092915050565b60408201600082015161374560008501826131fc565b506020820151613758602085018261378d565b50505050565b60408201600082015161377460008501826131fc565b506020820151613787602085018261378d565b50505050565b61379681613dd4565b82525050565b6137a581613dd4565b82525050565b600060208201905081810360008301526137c5818461303f565b905092915050565b600060208201905081810360008301526137e781846130b4565b905092915050565b600060408201905081810360008301526138098185613129565b9050818103602083015261381d818461319e565b90509392505050565b6000602082019050818103600083015261383f8161328c565b9050919050565b6000602082019050818103600083015261385f816132af565b9050919050565b6000602082019050818103600083015261387f816132d2565b9050919050565b6000602082019050818103600083015261389f816132f5565b9050919050565b600060208201905081810360008301526138bf81613318565b9050919050565b600060208201905081810360008301526138df8161333b565b9050919050565b600060208201905081810360008301526138ff8161335e565b9050919050565b6000602082019050818103600083015261391f81613381565b9050919050565b6000602082019050818103600083015261393f816133a4565b9050919050565b6000602082019050818103600083015261395f816133c7565b9050919050565b6000602082019050818103600083015261397f816133ea565b9050919050565b6000602082019050818103600083015261399f8161340d565b9050919050565b600060208201905081810360008301526139bf81613430565b9050919050565b600060208201905081810360008301526139df81613453565b9050919050565b600060208201905081810360008301526139ff81613476565b9050919050565b60006020820190508181036000830152613a1f81613499565b9050919050565b60006020820190508181036000830152613a3f816134bc565b9050919050565b60006020820190508181036000830152613a5f816134df565b9050919050565b60006060820190508181036000830152613a80818561368c565b9050613a8f602083018461375e565b9392505050565b6000604082019050613aab600083018461375e565b92915050565b6000602082019050613ac6600083018461379c565b92915050565b600060e082019050613ae1600083018a61379c565b8181036020830152613af38189613253565b9050613b026040830188613030565b8181036060830152613b148187613253565b90508181036080830152613b288186613253565b9050613b3760a083018561379c565b613b4460c083018461320b565b98975050505050505050565b6000604082019050613b65600083018561379c565b613b72602083018461379c565b9392505050565b6000613b83613b94565b9050613b8f8282613e7c565b919050565b6000604051905090565b600067ffffffffffffffff821115613bb957613bb8613f83565b5b602082029050602081019050919050565b600067ffffffffffffffff821115613be557613be4613f83565b5b613bee82613fd5565b9050602081019050919050565b6000819050602082019050919050565b6000819050602082019050919050565b6000819050602082019050919050565b6000819050602082019050919050565b600081519050919050565b600081519050919050565b600081519050919050565b600081519050919050565b600081519050919050565b6000602082019050919050565b6000602082019050919050565b6000602082019050919050565b6000602082019050919050565b600082825260208201905092915050565b600082825260208201905092915050565b600082825260208201905092915050565b600082825260208201905092915050565b600082825260208201905092915050565b600082825260208201905092915050565b6000613d1782613dd4565b9150613d2283613dd4565b9250827fffffffffffffffffffffffffffffffffffffffffffffffffffffffffffffffff03821115613d5757613d56613ef6565b5b828201905092915050565b6000613d6d82613dd4565b9150613d7883613dd4565b925082821015613d8b57613d8a613ef6565b5b828203905092915050565b6000613da182613db4565b9050919050565b60008115159050919050565b600073ffffffffffffffffffffffffffffffffffffffff82169050919050565b6000819050919050565b82818337600083830152505050565b60005b83811015613e0b578082015181840152602081019050613df0565b83811115613e1a576000848401525b50505050565b6000613e2b82613dd4565b91506000821415613e3f57613e3e613ef6565b5b600182039050919050565b60006002820490506001821680613e6257607f821691505b60208210811415613e7657613e75613f25565b5b50919050565b613e8582613fd5565b810181811067ffffffffffffffff82111715613ea457613ea3613f83565b5b80604052505050565b6000613eb882613dd4565b91507fffffffffffffffffffffffffffffffffffffffffffffffffffffffffffffffff821415613eeb57613eea613ef6565b5b600182019050919050565b7f4e487b7100000000000000000000000000000000000000000000000000000000600052601160045260246000fd5b7f4e487b7100000000000000000000000000000000000000000000000000000000600052602260045260246000fd5b7f4e487b7100000000000000000000000000000000000000000000000000000000600052603260045260246000fd5b7f4e487b7100000000000000000000000000000000000000000000000000000000600052604160045260246000fd5b600080fd5b600080fd5b600080fd5b600080fd5b600080fd5b600080fd5b600080fd5b6000601f19601f8301169050919050565b7f47726f757020646f73656e7420657869737420636865636b2067726f75704964600082015250565b7f47726f757020697320696e416374697665206f7220646f73656e74206578697360008201527f7400000000000000000000000000000000000000000000000000000000000000602082015250565b7f496e6465782063616e74206265206c657373207468656e207a65726f00000000600082015250565b7f546f6f206d616e792063686f696365732c20436f6e7472616374206973206c6960008201527f6d6974656420746f20352063686f69636573207065722070726f706f73616c2e602082015250565b7f537461727420696e6465782063616e74206265206c657373207468656e207a6560008201527f726f000000000000000000000000000000000000000000000000000000000000602082015250565b7f416d6f756e74206f662070726f706f73616c732072657175657374656420657860008201527f636565647320616d6f756e74206f66206578697374696e672070726f706f736160208201527f6c73000000000000000000000000000000000000000000000000000000000000604082015250565b7f506f6c6c2069736e74206f70656e000000000000000000000000000000000000600082015250565b7f4e756d626572206f662070726f706f73616c732063616e74206265207a65726f600082015250565b7f436865636b20706f6c6c2073746172742074696d652e00000000000000000000600082015250565b7f416d6f756e74206f662067726f7570732072657175657374656420657863656560008201527f647320616d6f756e74206f66206578697374696e672067726f75707300000000602082015250565b7f47726f757020616c726561647920616374697665000000000000000000000000600082015250565b7f596f75206d75737420766f746520666972737400000000000000000000000000600082015250565b7f4f6e6c79207468652063726561746f722063616e2064697361626c65206f722060008201527f616374697661746520612067726f75702e000000000000000000000000000000602082015250565b7f506f6c6c2068617320656e640000000000000000000000000000000000000000600082015250565b7f50726f706f73616c20646f65736e27742065786973742e000000000000000000600082015250565b7f4e756d626572206f662067726f7570732063616e74206265207a65726f000000600082015250565b7f596f75206861766520616c726561647920766f74656400000000000000000000600082015250565b7f47726f757020616c72656164792064697361626c65642e000000000000000000600082015250565b6143db81613dd4565b81146143e657600080fd5b5056fea264697066735822122004598486627d869137e92fc3e2d81e59c325765cd2f2340e1d3c6569a45defc364736f6c63430008070033",
  "immutableReferences": {},
  "source": "// SPDX-License-Identifier: GPL-3.0\npragma solidity 0.8.7;\n\ncontract Dao {\n\n    struct Group {\n      uint256 id;\n      string name;\n      address creator;\n      string description;\n      string image; // IPFS url\n      uint256 proposalCount;\n      bool isActive;\n    }\n\n    struct Proposal {\n      uint256 id;\n      uint256 groupId;\n      string title;\n      string description;\n      address creator;\n      uint256 proposalStart;\n      uint256 proposalEnd;\n    }\n\n    struct Choice\n    {\n      uint256 votes;\n      string description;\n    }\n\n    struct Vote\n    {\n      bool voted;  // if true, that person already voted\n      uint256 indexChoice;\n    }\n\n\n    /********************** Variables ***********************/\n    //GroupId -> ProposalId -> address -> has voted\n    mapping(uint256 => mapping(uint256 => mapping(address => Vote)) ) voteMap;\n    // GroupId -> ProposalId -> Choices Array\n    mapping(uint256 => mapping(uint256 => Choice[])) choices; // max of ten chocies;\n    // groupID -> list of Proposals\n    mapping(uint256 => Proposal[]) proposals;\n    // groupID -> Amount\n    mapping(uint256 => Group) groups;\n\n    Group[] public groupArray;\n\n    uint256 public groupIdTracker = 0;\n\n    /********************** Events ***********************/\n\n    event GroupActivated(uint256);\n    event GroupDisabled(uint256);\n    event ProposalCreated(uint256,uint256);\n    event GroupCreated(uint256);\n\n    /********************** Modifiers ***********************/\n\n    modifier groupsExist(uint256 startIndex,uint256 numberOfGroups) {\n      require(startIndex >= 0, \"Index cant be less then zero\");\n      require(numberOfGroups > 0,\"Number of groups cant be zero\");\n      require((groupArray.length - startIndex) >= numberOfGroups,\"Amount of groups requested exceeds amount of existing groups\");\n      _;\n    }\n    modifier groupExist(uint256 groupId) {\n      require(groupId <= groupArray.length,\"Group dosent exist check groupId\");\n      require(groups[groupId].isActive,\"Group is inActive or dosent exist\");\n      _;\n    }\n\n    modifier groupActivate(uint256 id){\n      require(groups[id].isActive == false,\"Group already active\");\n      _;\n    }\n\n    modifier groupDisabled(uint256 id) {\n      require(groups[id].isActive == true,\"Group already disabled.\");\n      _;\n    }\n\n    modifier isCreator(uint256 id) {\n      require(msg.sender == groups[id].creator,\"Only the creator can disable or activate a group.\");\n      _;\n    }\n\n    modifier pollisActive(uint256 groupId, uint256 proposalId) {\n      require(proposals[groupId][proposalId].proposalStart <= block.timestamp, \"Poll isnt open\");\n      require(proposals[groupId][proposalId].proposalEnd >= block.timestamp,\"Poll has end\");\n\n      _;\n    }\n\n    modifier canRemove(uint256 groupId, uint256 proposalId) {\n      require(voteMap[groupId][proposalId][msg.sender].voted == true,\"You must vote first\");\n      _;\n    }\n\n    modifier hasVoted(uint256 groupId, uint256 proposalId){\n      require(voteMap[groupId][proposalId][msg.sender].voted == false,\"You have already voted\");\n      _;\n    }\n\n    modifier proposalsExist(uint256 groupId,uint256 startIndex ,uint256 numberOfProposals){\n      require(startIndex >= 0, \"Start index cant be less then zero\");\n      require(numberOfProposals > 0,\"Number of proposals cant be zero\");\n      require((proposals[groupId].length - startIndex) >= numberOfProposals,\"Amount of proposals requested exceeds amount of existing proposals\");\n      _;\n    }\n\n    modifier proposalExist(uint256 groupId, uint256 proposalId){\n      require(proposals[groupId].length >= proposalId + 1 , \"Proposal doesn't exist.\");\n      _;\n    }\n\n\n    /********************** Proposal Functions ***********************/\n    // Proposals cannot be removed or delete\n\n    function createProposal(uint256 _groupId,string memory _title, string memory _description, uint256 _proposalStart, uint256 _proposalEnd, Choice[] memory _choices)\n    public\n    groupExist(_groupId) // Check if groups exist\n    {\n      require(_proposalStart < _proposalEnd,\"Check poll start time.\");\n      require(_choices.length < 5, \"Too many choices, Contract is limited to 5 choices per proposal.\");\n      Proposal memory newProposal;\n      newProposal.id = groups[_groupId].proposalCount; // set Proposal id to group ProposalCount\n      groups[_groupId].proposalCount++; // increase proposal counter within group\n      groupArray[_groupId] = groups[_groupId]; // Update group in groupArray\n\n      newProposal.title = _title;\n      newProposal.description = _description;\n      newProposal.creator = msg.sender;\n      newProposal.proposalEnd = _proposalEnd;\n      newProposal.proposalStart = _proposalStart;\n      newProposal.groupId = _groupId;\n      proposals[_groupId].push(newProposal);\n\n      for (uint i = 0; i < _choices.length; i++) {\n        choices[_groupId][newProposal.id].push(_choices[i]);\n      }\n\n      emit ProposalCreated(_groupId,newProposal.id);\n    }\n  // [[0,\"1\"],[0,\"2\"],[0,\"3\"]]\n    function getProposalCount(uint256 groupId) public view\n    groupExist(groupId)\n    returns(uint256)\n    {\n      return(groups[groupId].proposalCount);\n    }\n\n    function getProposals(uint256 _groupId,uint256 _startIndex, uint256 _numberOfProposals) public view\n    proposalsExist(_groupId,_startIndex,_numberOfProposals)\n    returns(Proposal[] memory,Vote[] memory)\n    {\n\n      uint256 end = _startIndex + _numberOfProposals;\n      uint256 newIndex = 0;\n      Proposal[] memory mProposals = new Proposal[](_numberOfProposals); // empty array with length of number of groups\n      Vote[] memory mVotes = new Vote[](_numberOfProposals);\n\n      for(uint i = _startIndex;i < end; i++){\n          mProposals[newIndex] = proposals[_groupId][i];\n          mVotes[newIndex] = voteMap[_groupId][i][msg.sender];\n          newIndex++;\n      }\n      return (mProposals,mVotes);\n    }\n\n\n\n    // ProposalId is also the index\n    function getProposal(uint256 groupId, uint256 proposalId) public view\n    groupExist(groupId)\n    proposalExist(groupId, proposalId)\n     returns(Proposal memory,Vote memory)\n    {\n      Proposal memory p = proposals[groupId][proposalId];\n      Vote memory v = voteMap[groupId][proposalId][msg.sender];\n      return(p,v);\n    }\n\n    /********************** Choice Functions ***********************/\n\n    function getChoice(uint256 _groupId, uint256 _proposalId)\n    public\n    view\n    returns(Choice[] memory)\n    {\n       Choice[] memory cho = choices[_groupId][_proposalId];\n       return(cho);\n    }\n\n\n    /********************** Voting Functions ***********************/\n    // This is only a one to one voting, not weighted\n    function vote(uint256 _groupId, uint256 _proposalId,uint256 _choiceId) public\n    groupExist(_groupId)\n    pollisActive(_groupId,_proposalId)\n    hasVoted(_groupId,_proposalId)\n    {\n      // update poll with new vote\n      Choice memory cho = choices[_groupId][_proposalId][_choiceId];\n      cho.votes++;\n      choices[_groupId][_proposalId][_choiceId] = cho;\n\n      // Update mapping with voting details\n      voteMap[_groupId][_proposalId][msg.sender].indexChoice = _choiceId;\n      voteMap[_groupId][_proposalId][msg.sender].voted = true;\n    }\n\n    function getVote(uint256 _groupId, uint256 _proposalId) public view\n      groupExist(_groupId)\n      proposalExist(_groupId, _proposalId)\n      //hasVoted(_groupId,_proposalId)\n      returns(Vote memory)\n    {\n      Vote memory ty = voteMap[_groupId][_proposalId][msg.sender];\n      return (ty);\n    }\n\n    function removeVote(uint256 _groupId, uint256 _proposalId) public\n      groupExist(_groupId)\n      canRemove(_groupId,_proposalId)\n      pollisActive(_groupId,_proposalId)\n\n    {\n      // Choice of what address voted for\n      uint256 _choiceId = voteMap[_groupId][_proposalId][msg.sender].indexChoice;\n      // update poll with new vote\n      Choice memory cho = choices[_groupId][_proposalId][_choiceId];\n      cho.votes--;\n      choices[_groupId][_proposalId][_choiceId] = cho;\n\n      // Update mapping with voting details\n      voteMap[_groupId][_proposalId][msg.sender].indexChoice = 0;\n      voteMap[_groupId][_proposalId][msg.sender].voted = false;\n\n\n    }\n\n    /********************** Group Functions ***********************/\n\n    function newGroup(string memory _name, string memory _description, string memory _groupImage)\n    public\n    {\n        Group memory group;\n        group.creator = msg.sender;\n        group.name = _name;\n        group.proposalCount = 0; // using for indexing for proposals\n        group.description = _description;\n        group.image = _groupImage;\n        group.id = groupIdTracker;\n        group.isActive = true;\n\n        groups[groupIdTracker] = group;\n        groupArray.push(group);\n        groupIdTracker++;\n        emit GroupCreated(group.id);\n    }\n\n    // Should groups be removed??\n    function disableGroup(uint256 _groupId) public\n    isCreator(_groupId)\n    groupDisabled(_groupId)\n    {\n      // set mapping group activity to false\n      groups[_groupId].isActive = false;\n      // delete group from array\n      // This will NOT shift the elements\n      //delete groupArray[_groupId]; // keep index the same\n\n      emit GroupDisabled(_groupId);\n    }\n\n    function activateGroup(uint256 _groupId) public\n    isCreator(_groupId)\n    groupActivate(_groupId)\n    {\n      groups[_groupId].isActive = true;\n\n      emit GroupActivated(_groupId);\n    }\n\n\n\n    function getGroup(uint256 _startIndex, uint256 _numberOfGroups) public view\n    groupsExist(_startIndex,_numberOfGroups)\n    returns(Group[] memory)\n\n    {\n        uint256 end = _startIndex + _numberOfGroups;\n        uint256 newIndex = 0;\n        Group[] memory mGroups = new Group[](_numberOfGroups); // empty array with length of number of groups\n        for(uint i = _startIndex;i < end; i++){\n            mGroups[newIndex] = groupArray[i];\n            newIndex++;\n        }\n        return (mGroups);\n    }\n\n\n\n}\n",
  "sourcePath": "/Users/mitch/Documents/SmartContracts/CryptaDAO/contracts/DAO.sol",
  "compiler": {
    "name": "solc",
    "version": "0.8.7+commit.e28d00a7.Emscripten.clang"
  },
  "schemaVersion": "3.4.7",
  "updatedAt": "2022-07-21T16:52:20.653Z",
  "networkType": "ethereum",
  "devdoc": {
    "kind": "dev",
    "methods": {},
    "version": 1
  },
  "userdoc": {
    "kind": "user",
    "methods": {},
    "version": 1
  }
}