{
  "contractName": "Dao",
  "abi": [
    {
      "anonymous": false,
      "inputs": [
        {
          "indexed": false,
          "internalType": "uint256",
          "name": "",
          "type": "uint256"
        }
      ],
      "name": "GroupActivated",
      "type": "event"
    },
    {
      "anonymous": false,
      "inputs": [
        {
          "indexed": false,
          "internalType": "uint256",
          "name": "",
          "type": "uint256"
        }
      ],
      "name": "GroupCreated",
      "type": "event"
    },
    {
      "anonymous": false,
      "inputs": [
        {
          "indexed": false,
          "internalType": "uint256",
          "name": "",
          "type": "uint256"
        }
      ],
      "name": "GroupDisabled",
      "type": "event"
    },
    {
      "anonymous": false,
      "inputs": [
        {
          "indexed": false,
          "internalType": "uint256",
          "name": "",
          "type": "uint256"
        },
        {
          "components": [
            {
              "internalType": "uint256",
              "name": "id",
              "type": "uint256"
            },
            {
              "internalType": "string",
              "name": "title",
              "type": "string"
            },
            {
              "internalType": "string",
              "name": "description",
              "type": "string"
            },
            {
              "internalType": "address",
              "name": "creator",
              "type": "address"
            },
            {
              "internalType": "uint256",
              "name": "proposalStart",
              "type": "uint256"
            },
            {
              "internalType": "uint256",
              "name": "proposalEnd",
              "type": "uint256"
            }
          ],
          "indexed": false,
          "internalType": "struct Dao.Proposal",
          "name": "",
          "type": "tuple"
        }
      ],
      "name": "ProposalCreated",
      "type": "event"
    },
    {
      "inputs": [
        {
          "internalType": "uint256",
          "name": "",
          "type": "uint256"
        }
      ],
      "name": "groupArray",
      "outputs": [
        {
          "internalType": "uint256",
          "name": "id",
          "type": "uint256"
        },
        {
          "internalType": "string",
          "name": "name",
          "type": "string"
        },
        {
          "internalType": "address",
          "name": "creator",
          "type": "address"
        },
        {
          "internalType": "string",
          "name": "description",
          "type": "string"
        },
        {
          "internalType": "string",
          "name": "image",
          "type": "string"
        },
        {
          "internalType": "uint256",
          "name": "proposalCount",
          "type": "uint256"
        },
        {
          "internalType": "bool",
          "name": "isActive",
          "type": "bool"
        }
      ],
      "stateMutability": "view",
      "type": "function",
      "constant": true
    },
    {
      "inputs": [],
      "name": "groupIdTracker",
      "outputs": [
        {
          "internalType": "uint256",
          "name": "",
          "type": "uint256"
        }
      ],
      "stateMutability": "view",
      "type": "function",
      "constant": true
    },
    {
      "inputs": [
        {
          "internalType": "uint256",
          "name": "groupId",
          "type": "uint256"
        },
        {
          "internalType": "string",
          "name": "_title",
          "type": "string"
        },
        {
          "internalType": "string",
          "name": "_description",
          "type": "string"
        },
        {
          "internalType": "uint256",
          "name": "_proposalStart",
          "type": "uint256"
        },
        {
          "internalType": "uint256",
          "name": "_proposalEnd",
          "type": "uint256"
        },
        {
          "components": [
            {
              "internalType": "uint256",
              "name": "votes",
              "type": "uint256"
            },
            {
              "internalType": "string",
              "name": "description",
              "type": "string"
            }
          ],
          "internalType": "struct Dao.Choice[]",
          "name": "_choices",
          "type": "tuple[]"
        }
      ],
      "name": "createProposal",
      "outputs": [],
      "stateMutability": "nonpayable",
      "type": "function"
    },
    {
      "inputs": [
        {
          "internalType": "uint256",
          "name": "groupId",
          "type": "uint256"
        }
      ],
      "name": "getProposalCount",
      "outputs": [
        {
          "internalType": "uint256",
          "name": "",
          "type": "uint256"
        }
      ],
      "stateMutability": "view",
      "type": "function",
      "constant": true
    },
    {
      "inputs": [
        {
          "internalType": "uint256",
          "name": "_groupId",
          "type": "uint256"
        },
        {
          "internalType": "uint256",
          "name": "_startIndex",
          "type": "uint256"
        },
        {
          "internalType": "uint256",
          "name": "_numberOfProposals",
          "type": "uint256"
        }
      ],
      "name": "getProposals",
      "outputs": [
        {
          "components": [
            {
              "internalType": "uint256",
              "name": "id",
              "type": "uint256"
            },
            {
              "internalType": "string",
              "name": "title",
              "type": "string"
            },
            {
              "internalType": "string",
              "name": "description",
              "type": "string"
            },
            {
              "internalType": "address",
              "name": "creator",
              "type": "address"
            },
            {
              "internalType": "uint256",
              "name": "proposalStart",
              "type": "uint256"
            },
            {
              "internalType": "uint256",
              "name": "proposalEnd",
              "type": "uint256"
            }
          ],
          "internalType": "struct Dao.Proposal[]",
          "name": "",
          "type": "tuple[]"
        },
        {
          "components": [
            {
              "internalType": "bool",
              "name": "voted",
              "type": "bool"
            },
            {
              "internalType": "uint256",
              "name": "indexChoice",
              "type": "uint256"
            }
          ],
          "internalType": "struct Dao.Vote[]",
          "name": "",
          "type": "tuple[]"
        }
      ],
      "stateMutability": "view",
      "type": "function",
      "constant": true
    },
    {
      "inputs": [
        {
          "internalType": "uint256",
          "name": "groupId",
          "type": "uint256"
        },
        {
          "internalType": "uint256",
          "name": "proposalId",
          "type": "uint256"
        }
      ],
      "name": "getProposal",
      "outputs": [
        {
          "components": [
            {
              "internalType": "uint256",
              "name": "id",
              "type": "uint256"
            },
            {
              "internalType": "string",
              "name": "title",
              "type": "string"
            },
            {
              "internalType": "string",
              "name": "description",
              "type": "string"
            },
            {
              "internalType": "address",
              "name": "creator",
              "type": "address"
            },
            {
              "internalType": "uint256",
              "name": "proposalStart",
              "type": "uint256"
            },
            {
              "internalType": "uint256",
              "name": "proposalEnd",
              "type": "uint256"
            }
          ],
          "internalType": "struct Dao.Proposal",
          "name": "",
          "type": "tuple"
        },
        {
          "components": [
            {
              "internalType": "bool",
              "name": "voted",
              "type": "bool"
            },
            {
              "internalType": "uint256",
              "name": "indexChoice",
              "type": "uint256"
            }
          ],
          "internalType": "struct Dao.Vote",
          "name": "",
          "type": "tuple"
        }
      ],
      "stateMutability": "view",
      "type": "function",
      "constant": true
    },
    {
      "inputs": [
        {
          "internalType": "uint256",
          "name": "_groupId",
          "type": "uint256"
        },
        {
          "internalType": "uint256",
          "name": "_proposalId",
          "type": "uint256"
        }
      ],
      "name": "getChoice",
      "outputs": [
        {
          "components": [
            {
              "internalType": "uint256",
              "name": "votes",
              "type": "uint256"
            },
            {
              "internalType": "string",
              "name": "description",
              "type": "string"
            }
          ],
          "internalType": "struct Dao.Choice[]",
          "name": "",
          "type": "tuple[]"
        }
      ],
      "stateMutability": "view",
      "type": "function",
      "constant": true
    },
    {
      "inputs": [
        {
          "internalType": "uint256",
          "name": "_groupId",
          "type": "uint256"
        },
        {
          "internalType": "uint256",
          "name": "_proposalId",
          "type": "uint256"
        },
        {
          "internalType": "uint256",
          "name": "_choiceId",
          "type": "uint256"
        }
      ],
      "name": "vote",
      "outputs": [],
      "stateMutability": "nonpayable",
      "type": "function"
    },
    {
      "inputs": [
        {
          "internalType": "uint256",
          "name": "_groupId",
          "type": "uint256"
        },
        {
          "internalType": "uint256",
          "name": "_proposalId",
          "type": "uint256"
        }
      ],
      "name": "getVote",
      "outputs": [
        {
          "components": [
            {
              "internalType": "bool",
              "name": "voted",
              "type": "bool"
            },
            {
              "internalType": "uint256",
              "name": "indexChoice",
              "type": "uint256"
            }
          ],
          "internalType": "struct Dao.Vote",
          "name": "",
          "type": "tuple"
        }
      ],
      "stateMutability": "view",
      "type": "function",
      "constant": true
    },
    {
      "inputs": [
        {
          "internalType": "uint256",
          "name": "_groupId",
          "type": "uint256"
        },
        {
          "internalType": "uint256",
          "name": "_proposalId",
          "type": "uint256"
        }
      ],
      "name": "removeVote",
      "outputs": [],
      "stateMutability": "nonpayable",
      "type": "function"
    },
    {
      "inputs": [
        {
          "internalType": "string",
          "name": "_name",
          "type": "string"
        },
        {
          "internalType": "string",
          "name": "_description",
          "type": "string"
        },
        {
          "internalType": "string",
          "name": "_groupImage",
          "type": "string"
        }
      ],
      "name": "newGroup",
      "outputs": [],
      "stateMutability": "nonpayable",
      "type": "function"
    },
    {
      "inputs": [
        {
          "internalType": "uint256",
          "name": "_groupId",
          "type": "uint256"
        }
      ],
      "name": "disableGroup",
      "outputs": [],
      "stateMutability": "nonpayable",
      "type": "function"
    },
    {
      "inputs": [
        {
          "internalType": "uint256",
          "name": "_groupId",
          "type": "uint256"
        }
      ],
      "name": "activateGroup",
      "outputs": [],
      "stateMutability": "nonpayable",
      "type": "function"
    },
    {
      "inputs": [
        {
          "internalType": "uint256",
          "name": "_startIndex",
          "type": "uint256"
        },
        {
          "internalType": "uint256",
          "name": "_numberOfGroups",
          "type": "uint256"
        }
      ],
      "name": "getGroup",
      "outputs": [
        {
          "components": [
            {
              "internalType": "uint256",
              "name": "id",
              "type": "uint256"
            },
            {
              "internalType": "string",
              "name": "name",
              "type": "string"
            },
            {
              "internalType": "address",
              "name": "creator",
              "type": "address"
            },
            {
              "internalType": "string",
              "name": "description",
              "type": "string"
            },
            {
              "internalType": "string",
              "name": "image",
              "type": "string"
            },
            {
              "internalType": "uint256",
              "name": "proposalCount",
              "type": "uint256"
            },
            {
              "internalType": "bool",
              "name": "isActive",
              "type": "bool"
            }
          ],
          "internalType": "struct Dao.Group[]",
          "name": "",
          "type": "tuple[]"
        }
      ],
      "stateMutability": "view",
      "type": "function",
      "constant": true
    }
  ],
  "bytecode": "0x6080604052600060055534801561001557600080fd5b506143cd806100256000396000f3fe608060405234801561001057600080fd5b50600436106100ea5760003560e01c8063874a640a1161008c57806398cc49151161006657806398cc49151461026e578063aba21009146102a4578063e3ef7dd0146102d5578063f73b9f22146102f1576100ea565b8063874a640a146102185780638a6655d614610234578063927f10e614610250576100ea565b806345bdbbc0116100c857806345bdbbc01461016c57806349330cb81461019c5780634936c0f6146101cc5780636a0b406c146101fc576100ea565b80630a1040a7146100ef5780632a2eaf311461010b578063426dd27c1461013c575b600080fd5b61010960048036038101906101049190612f07565b61030d565b005b61012560048036038101906101209190612f47565b610832565b604051610133929190613796565b60405180910390f35b61015660048036038101906101519190612f07565b610ccb565b6040516101639190613774565b60405180910390f35b61018660048036038101906101819190612f07565b6110d6565b6040516101939190613752565b60405180910390f35b6101b660048036038101906101b19190612f07565b6111fc565b6040516101c39190613a3d565b60405180910390f35b6101e660048036038101906101e19190612df9565b6113b8565b6040516101f39190613a58565b60405180910390f35b61021660048036038101906102119190612d52565b611485565b005b610232600480360381019061022d9190612df9565b61174c565b005b61024e60048036038101906102499190612f47565b6118c7565b005b610258611d83565b6040516102659190613a58565b60405180910390f35b61028860048036038101906102839190612df9565b611d89565b60405161029b9796959493929190613a73565b60405180910390f35b6102be60048036038101906102b99190612f07565b611fa0565b6040516102cc929190613a0d565b60405180910390f35b6102ef60048036038101906102ea9190612e26565b612343565b005b61030b60048036038101906103069190612df9565b61283d565b005b81600480549050811115610356576040517f08c379a000000000000000000000000000000000000000000000000000000000815260040161034d906137cd565b60405180910390fd5b6003600082815260200190815260200160002060060160009054906101000a900460ff166103b9576040517f08c379a00000000000000000000000000000000000000000000000000000000081526004016103b0906137ed565b60405180910390fd5b828260011515600080848152602001908152602001600020600083815260200190815260200160002060003373ffffffffffffffffffffffffffffffffffffffff1673ffffffffffffffffffffffffffffffffffffffff16815260200190815260200160002060000160009054906101000a900460ff16151514610472576040517f08c379a00000000000000000000000000000000000000000000000000000000081526004016104699061392d565b60405180910390fd5b84844260026000848152602001908152602001600020828154811061049a57610499613f02565b5b90600052602060002090600602016004015411156104ed576040517f08c379a00000000000000000000000000000000000000000000000000000000081526004016104e49061388d565b60405180910390fd5b4260026000848152602001908152602001600020828154811061051357610512613f02565b5b9060005260206000209060060201600501541015610566576040517f08c379a000000000000000000000000000000000000000000000000000000000815260040161055d9061396d565b60405180910390fd5b6000806000898152602001908152602001600020600088815260200190815260200160002060003373ffffffffffffffffffffffffffffffffffffffff1673ffffffffffffffffffffffffffffffffffffffff1681526020019081526020016000206001015490506000600160008a81526020019081526020016000206000898152602001908152602001600020828154811061060657610605613f02565b5b90600052602060002090600202016040518060400160405290816000820154815260200160018201805461063990613df8565b80601f016020809104026020016040519081016040528092919081815260200182805461066590613df8565b80156106b25780601f10610687576101008083540402835291602001916106b2565b820191906000526020600020905b81548152906001019060200180831161069557829003601f168201915b50505050508152505090508060000180518091906106cf90613dce565b8152505080600160008b815260200190815260200160002060008a8152602001908152602001600020838154811061070a57610709613f02565b5b906000526020600020906002020160008201518160000155602082015181600101908051906020019061073e9291906129b8565b5090505060008060008b815260200190815260200160002060008a815260200190815260200160002060003373ffffffffffffffffffffffffffffffffffffffff1673ffffffffffffffffffffffffffffffffffffffff1681526020019081526020016000206001018190555060008060008b815260200190815260200160002060008a815260200190815260200160002060003373ffffffffffffffffffffffffffffffffffffffff1673ffffffffffffffffffffffffffffffffffffffff16815260200190815260200160002060000160006101000a81548160ff021916908315150217905550505050505050505050565b606080848484600082101561087c576040517f08c379a00000000000000000000000000000000000000000000000000000000081526004016108739061384d565b60405180910390fd5b600081116108bf576040517f08c379a00000000000000000000000000000000000000000000000000000000081526004016108b6906138ad565b60405180910390fd5b808260026000868152602001908152602001600020805490506108e29190613d10565b1015610923576040517f08c379a000000000000000000000000000000000000000000000000000000000815260040161091a9061386d565b60405180910390fd5b600086886109319190613cba565b90506000808867ffffffffffffffff8111156109505761094f613f31565b5b60405190808252806020026020018201604052801561098957816020015b610976612a3e565b81526020019060019003908161096e5790505b50905060008967ffffffffffffffff8111156109a8576109a7613f31565b5b6040519080825280602002602001820160405280156109e157816020015b6109ce612a8a565b8152602001906001900390816109c65790505b50905060008b90505b84811015610cb557600260008e81526020019081526020016000208181548110610a1757610a16613f02565b5b90600052602060002090600602016040518060c001604052908160008201548152602001600182018054610a4a90613df8565b80601f0160208091040260200160405190810160405280929190818152602001828054610a7690613df8565b8015610ac35780601f10610a9857610100808354040283529160200191610ac3565b820191906000526020600020905b815481529060010190602001808311610aa657829003601f168201915b50505050508152602001600282018054610adc90613df8565b80601f0160208091040260200160405190810160405280929190818152602001828054610b0890613df8565b8015610b555780601f10610b2a57610100808354040283529160200191610b55565b820191906000526020600020905b815481529060010190602001808311610b3857829003601f168201915b505050505081526020016003820160009054906101000a900473ffffffffffffffffffffffffffffffffffffffff1673ffffffffffffffffffffffffffffffffffffffff1673ffffffffffffffffffffffffffffffffffffffff16815260200160048201548152602001600582015481525050838581518110610bdb57610bda613f02565b5b60200260200101819052506000808e8152602001908152602001600020600082815260200190815260200160002060003373ffffffffffffffffffffffffffffffffffffffff1673ffffffffffffffffffffffffffffffffffffffff1681526020019081526020016000206040518060400160405290816000820160009054906101000a900460ff16151515158152602001600182015481525050828581518110610c8957610c88613f02565b5b60200260200101819052508380610c9f90613e5b565b9450508080610cad90613e5b565b9150506109ea565b5081819850985050505050505050935093915050565b606082826000821015610d13576040517f08c379a0000000000000000000000000000000000000000000000000000000008152600401610d0a9061380d565b60405180910390fd5b60008111610d56576040517f08c379a0000000000000000000000000000000000000000000000000000000008152600401610d4d906139ad565b60405180910390fd5b8082600480549050610d689190613d10565b1015610da9576040517f08c379a0000000000000000000000000000000000000000000000000000000008152600401610da0906138ed565b60405180910390fd5b60008486610db79190613cba565b90506000808667ffffffffffffffff811115610dd657610dd5613f31565b5b604051908082528060200260200182016040528015610e0f57816020015b610dfc612aa6565b815260200190600190039081610df45790505b50905060008890505b838110156110c75760048181548110610e3457610e33613f02565b5b90600052602060002090600702016040518060e001604052908160008201548152602001600182018054610e6790613df8565b80601f0160208091040260200160405190810160405280929190818152602001828054610e9390613df8565b8015610ee05780601f10610eb557610100808354040283529160200191610ee0565b820191906000526020600020905b815481529060010190602001808311610ec357829003601f168201915b505050505081526020016002820160009054906101000a900473ffffffffffffffffffffffffffffffffffffffff1673ffffffffffffffffffffffffffffffffffffffff1673ffffffffffffffffffffffffffffffffffffffff168152602001600382018054610f4f90613df8565b80601f0160208091040260200160405190810160405280929190818152602001828054610f7b90613df8565b8015610fc85780601f10610f9d57610100808354040283529160200191610fc8565b820191906000526020600020905b815481529060010190602001808311610fab57829003601f168201915b50505050508152602001600482018054610fe190613df8565b80601f016020809104026020016040519081016040528092919081815260200182805461100d90613df8565b801561105a5780601f1061102f5761010080835404028352916020019161105a565b820191906000526020600020905b81548152906001019060200180831161103d57829003601f168201915b50505050508152602001600582015481526020016006820160009054906101000a900460ff16151515158152505082848151811061109b5761109a613f02565b5b602002602001018190525082806110b190613e5b565b93505080806110bf90613e5b565b915050610e18565b50809550505050505092915050565b60606000600160008581526020019081526020016000206000848152602001908152602001600020805480602002602001604051908101604052809291908181526020016000905b828210156111ec57838290600052602060002090600202016040518060400160405290816000820154815260200160018201805461115b90613df8565b80601f016020809104026020016040519081016040528092919081815260200182805461118790613df8565b80156111d45780601f106111a9576101008083540402835291602001916111d4565b820191906000526020600020905b8154815290600101906020018083116111b757829003601f168201915b5050505050815250508152602001906001019061111e565b5050505090508091505092915050565b611204612a8a565b8260048054905081111561124d576040517f08c379a0000000000000000000000000000000000000000000000000000000008152600401611244906137cd565b60405180910390fd5b6003600082815260200190815260200160002060060160009054906101000a900460ff166112b0576040517f08c379a00000000000000000000000000000000000000000000000000000000081526004016112a7906137ed565b60405180910390fd5b83836001816112bf9190613cba565b60026000848152602001908152602001600020805490501015611317576040517f08c379a000000000000000000000000000000000000000000000000000000000815260040161130e9061398d565b60405180910390fd5b6000806000888152602001908152602001600020600087815260200190815260200160002060003373ffffffffffffffffffffffffffffffffffffffff1673ffffffffffffffffffffffffffffffffffffffff1681526020019081526020016000206040518060400160405290816000820160009054906101000a900460ff1615151515815260200160018201548152505090508094505050505092915050565b600081600480549050811115611403576040517f08c379a00000000000000000000000000000000000000000000000000000000081526004016113fa906137cd565b60405180910390fd5b6003600082815260200190815260200160002060060160009054906101000a900460ff16611466576040517f08c379a000000000000000000000000000000000000000000000000000000000815260040161145d906137ed565b60405180910390fd5b6003600084815260200190815260200160002060050154915050919050565b61148d612aa6565b33816040019073ffffffffffffffffffffffffffffffffffffffff16908173ffffffffffffffffffffffffffffffffffffffff168152505083816020018190525060008160a001818152505082816060018190525081816080018190525060055481600001818152505060018160c0019015159081151581525050806003600060055481526020019081526020016000206000820151816000015560208201518160010190805190602001906115449291906129b8565b5060408201518160020160006101000a81548173ffffffffffffffffffffffffffffffffffffffff021916908373ffffffffffffffffffffffffffffffffffffffff16021790555060608201518160030190805190602001906115a89291906129b8565b5060808201518160040190805190602001906115c59291906129b8565b5060a0820151816005015560c08201518160060160006101000a81548160ff02191690831515021790555090505060048190806001815401808255809150506001900390600052602060002090600702016000909190919091506000820151816000015560208201518160010190805190602001906116459291906129b8565b5060408201518160020160006101000a81548173ffffffffffffffffffffffffffffffffffffffff021916908373ffffffffffffffffffffffffffffffffffffffff16021790555060608201518160030190805190602001906116a99291906129b8565b5060808201518160040190805190602001906116c69291906129b8565b5060a0820151816005015560c08201518160060160006101000a81548160ff02191690831515021790555050506005600081548092919061170690613e5b565b91905055507ff0adfb94eab6daf835deb69c5738fe636150c3dfd08094a76f39b963dc8cb05a816000015160405161173e9190613a58565b60405180910390a150505050565b806003600082815260200190815260200160002060020160009054906101000a900473ffffffffffffffffffffffffffffffffffffffff1673ffffffffffffffffffffffffffffffffffffffff163373ffffffffffffffffffffffffffffffffffffffff16146117f1576040517f08c379a00000000000000000000000000000000000000000000000000000000081526004016117e89061394d565b60405180910390fd5b81600015156003600083815260200190815260200160002060060160009054906101000a900460ff1615151461185c576040517f08c379a00000000000000000000000000000000000000000000000000000000081526004016118539061390d565b60405180910390fd5b60016003600085815260200190815260200160002060060160006101000a81548160ff0219169083151502179055507febefe55be640961855d7fd4e391c743a58d0ee08196320fead0e6d832d33d3b8836040516118ba9190613a58565b60405180910390a1505050565b82600480549050811115611910576040517f08c379a0000000000000000000000000000000000000000000000000000000008152600401611907906137cd565b60405180910390fd5b6003600082815260200190815260200160002060060160009054906101000a900460ff16611973576040517f08c379a000000000000000000000000000000000000000000000000000000000815260040161196a906137ed565b60405180910390fd5b83834260026000848152602001908152602001600020828154811061199b5761199a613f02565b5b90600052602060002090600602016004015411156119ee576040517f08c379a00000000000000000000000000000000000000000000000000000000081526004016119e59061388d565b60405180910390fd5b42600260008481526020019081526020016000208281548110611a1457611a13613f02565b5b9060005260206000209060060201600501541015611a67576040517f08c379a0000000000000000000000000000000000000000000000000000000008152600401611a5e9061396d565b60405180910390fd5b858560001515600080848152602001908152602001600020600083815260200190815260200160002060003373ffffffffffffffffffffffffffffffffffffffff1673ffffffffffffffffffffffffffffffffffffffff16815260200190815260200160002060000160009054906101000a900460ff16151514611b20576040517f08c379a0000000000000000000000000000000000000000000000000000000008152600401611b17906139cd565b60405180910390fd5b6000600160008a815260200190815260200160002060008981526020019081526020016000208781548110611b5857611b57613f02565b5b906000526020600020906002020160405180604001604052908160008201548152602001600182018054611b8b90613df8565b80601f0160208091040260200160405190810160405280929190818152602001828054611bb790613df8565b8015611c045780601f10611bd957610100808354040283529160200191611c04565b820191906000526020600020905b815481529060010190602001808311611be757829003601f168201915b5050505050815250509050806000018051809190611c2190613e5b565b8152505080600160008b815260200190815260200160002060008a81526020019081526020016000208881548110611c5c57611c5b613f02565b5b9060005260206000209060020201600082015181600001556020820151816001019080519060200190611c909291906129b8565b50905050866000808b815260200190815260200160002060008a815260200190815260200160002060003373ffffffffffffffffffffffffffffffffffffffff1673ffffffffffffffffffffffffffffffffffffffff1681526020019081526020016000206001018190555060016000808b815260200190815260200160002060008a815260200190815260200160002060003373ffffffffffffffffffffffffffffffffffffffff1673ffffffffffffffffffffffffffffffffffffffff16815260200190815260200160002060000160006101000a81548160ff021916908315150217905550505050505050505050565b60055481565b60048181548110611d9957600080fd5b9060005260206000209060070201600091509050806000015490806001018054611dc290613df8565b80601f0160208091040260200160405190810160405280929190818152602001828054611dee90613df8565b8015611e3b5780601f10611e1057610100808354040283529160200191611e3b565b820191906000526020600020905b815481529060010190602001808311611e1e57829003601f168201915b5050505050908060020160009054906101000a900473ffffffffffffffffffffffffffffffffffffffff1690806003018054611e7690613df8565b80601f0160208091040260200160405190810160405280929190818152602001828054611ea290613df8565b8015611eef5780601f10611ec457610100808354040283529160200191611eef565b820191906000526020600020905b815481529060010190602001808311611ed257829003601f168201915b505050505090806004018054611f0490613df8565b80601f0160208091040260200160405190810160405280929190818152602001828054611f3090613df8565b8015611f7d5780601f10611f5257610100808354040283529160200191611f7d565b820191906000526020600020905b815481529060010190602001808311611f6057829003601f168201915b5050505050908060050154908060060160009054906101000a900460ff16905087565b611fa8612a3e565b611fb0612a8a565b83600480549050811115611ff9576040517f08c379a0000000000000000000000000000000000000000000000000000000008152600401611ff0906137cd565b60405180910390fd5b6003600082815260200190815260200160002060060160009054906101000a900460ff1661205c576040517f08c379a0000000000000000000000000000000000000000000000000000000008152600401612053906137ed565b60405180910390fd5b848460018161206b9190613cba565b600260008481526020019081526020016000208054905010156120c3576040517f08c379a00000000000000000000000000000000000000000000000000000000081526004016120ba9061398d565b60405180910390fd5b60006002600089815260200190815260200160002087815481106120ea576120e9613f02565b5b90600052602060002090600602016040518060c00160405290816000820154815260200160018201805461211d90613df8565b80601f016020809104026020016040519081016040528092919081815260200182805461214990613df8565b80156121965780601f1061216b57610100808354040283529160200191612196565b820191906000526020600020905b81548152906001019060200180831161217957829003601f168201915b505050505081526020016002820180546121af90613df8565b80601f01602080910402602001604051908101604052809291908181526020018280546121db90613df8565b80156122285780601f106121fd57610100808354040283529160200191612228565b820191906000526020600020905b81548152906001019060200180831161220b57829003601f168201915b505050505081526020016003820160009054906101000a900473ffffffffffffffffffffffffffffffffffffffff1673ffffffffffffffffffffffffffffffffffffffff1673ffffffffffffffffffffffffffffffffffffffff16815260200160048201548152602001600582015481525050905060008060008a8152602001908152602001600020600089815260200190815260200160002060003373ffffffffffffffffffffffffffffffffffffffff1673ffffffffffffffffffffffffffffffffffffffff1681526020019081526020016000206040518060400160405290816000820160009054906101000a900460ff16151515158152602001600182015481525050905081819650965050505050509250929050565b8560048054905081111561238c576040517f08c379a0000000000000000000000000000000000000000000000000000000008152600401612383906137cd565b60405180910390fd5b6003600082815260200190815260200160002060060160009054906101000a900460ff166123ef576040517f08c379a00000000000000000000000000000000000000000000000000000000081526004016123e6906137ed565b60405180910390fd5b828410612431576040517f08c379a0000000000000000000000000000000000000000000000000000000008152600401612428906138cd565b60405180910390fd5b6005825110612475576040517f08c379a000000000000000000000000000000000000000000000000000000000815260040161246c9061382d565b60405180910390fd5b61247d612a3e565b60036000898152602001908152602001600020600501548160000181815250506003600089815260200190815260200160002060050160008154809291906124c490613e5b565b919050555060036000898152602001908152602001600020600489815481106124f0576124ef613f02565b5b906000526020600020906007020160008201548160000155600182018160010190805461251c90613df8565b612527929190612afb565b506002820160009054906101000a900473ffffffffffffffffffffffffffffffffffffffff168160020160006101000a81548173ffffffffffffffffffffffffffffffffffffffff021916908373ffffffffffffffffffffffffffffffffffffffff16021790555060038201816003019080546125a390613df8565b6125ae929190612afb565b5060048201816004019080546125c390613df8565b6125ce929190612afb565b50600582015481600501556006820160009054906101000a900460ff168160060160006101000a81548160ff02191690831515021790555090505086816020018190525085816040018190525033816060019073ffffffffffffffffffffffffffffffffffffffff16908173ffffffffffffffffffffffffffffffffffffffff1681525050838160a001818152505084816080018181525050600260008981526020019081526020016000208190806001815401808255809150506001900390600052602060002090600602016000909190919091506000820151816000015560208201518160010190805190602001906126ca9291906129b8565b5060408201518160020190805190602001906126e79291906129b8565b5060608201518160030160006101000a81548173ffffffffffffffffffffffffffffffffffffffff021916908373ffffffffffffffffffffffffffffffffffffffff1602179055506080820151816004015560a08201518160050155505060005b83518110156127f957600160008a815260200190815260200160002060008360000151815260200190815260200160002084828151811061278c5761278b613f02565b5b602002602001015190806001815401808255809150506001900390600052602060002090600202016000909190919091506000820151816000015560208201518160010190805190602001906127e39291906129b8565b50505080806127f190613e5b565b915050612748565b507ff12b7c8ae74bfa85de671cdccdfbd608fc9068e1734b195bf2aa9fe54d1be4d6888260405161282b929190613af7565b60405180910390a15050505050505050565b806003600082815260200190815260200160002060020160009054906101000a900473ffffffffffffffffffffffffffffffffffffffff1673ffffffffffffffffffffffffffffffffffffffff163373ffffffffffffffffffffffffffffffffffffffff16146128e2576040517f08c379a00000000000000000000000000000000000000000000000000000000081526004016128d99061394d565b60405180910390fd5b81600115156003600083815260200190815260200160002060060160009054906101000a900460ff1615151461294d576040517f08c379a0000000000000000000000000000000000000000000000000000000008152600401612944906139ed565b60405180910390fd5b60006003600085815260200190815260200160002060060160006101000a81548160ff0219169083151502179055507fd80e1e836ad428e388ec8f855edd512d56d58bf942ac36d08934a3d49ec3b301836040516129ab9190613a58565b60405180910390a1505050565b8280546129c490613df8565b90600052602060002090601f0160209004810192826129e65760008555612a2d565b82601f106129ff57805160ff1916838001178555612a2d565b82800160010185558215612a2d579182015b82811115612a2c578251825591602001919060010190612a11565b5b509050612a3a9190612b88565b5090565b6040518060c00160405280600081526020016060815260200160608152602001600073ffffffffffffffffffffffffffffffffffffffff16815260200160008152602001600081525090565b6040518060400160405280600015158152602001600081525090565b6040518060e001604052806000815260200160608152602001600073ffffffffffffffffffffffffffffffffffffffff1681526020016060815260200160608152602001600081526020016000151581525090565b828054612b0790613df8565b90600052602060002090601f016020900481019282612b295760008555612b77565b82601f10612b3a5780548555612b77565b82800160010185558215612b7757600052602060002091601f016020900482015b82811115612b76578254825591600101919060010190612b5b565b5b509050612b849190612b88565b5090565b5b80821115612ba1576000816000905550600101612b89565b5090565b6000612bb8612bb384613b4c565b613b27565b90508083825260208201905082856020860282011115612bdb57612bda613f6f565b5b60005b85811015612c2957813567ffffffffffffffff811115612c0157612c00613f60565b5b808601612c0e8982612cd1565b85526020850194506020840193505050600181019050612bde565b5050509392505050565b6000612c46612c4184613b78565b613b27565b905082815260208101848484011115612c6257612c61613f74565b5b612c6d848285613d8c565b509392505050565b600082601f830112612c8a57612c89613f60565b5b8135612c9a848260208601612ba5565b91505092915050565b600082601f830112612cb857612cb7613f60565b5b8135612cc8848260208601612c33565b91505092915050565b600060408284031215612ce757612ce6613f65565b5b612cf16040613b27565b90506000612d0184828501612d3d565b600083015250602082013567ffffffffffffffff811115612d2557612d24613f6a565b5b612d3184828501612ca3565b60208301525092915050565b600081359050612d4c81614380565b92915050565b600080600060608486031215612d6b57612d6a613f7e565b5b600084013567ffffffffffffffff811115612d8957612d88613f79565b5b612d9586828701612ca3565b935050602084013567ffffffffffffffff811115612db657612db5613f79565b5b612dc286828701612ca3565b925050604084013567ffffffffffffffff811115612de357612de2613f79565b5b612def86828701612ca3565b9150509250925092565b600060208284031215612e0f57612e0e613f7e565b5b6000612e1d84828501612d3d565b91505092915050565b60008060008060008060c08789031215612e4357612e42613f7e565b5b6000612e5189828a01612d3d565b965050602087013567ffffffffffffffff811115612e7257612e71613f79565b5b612e7e89828a01612ca3565b955050604087013567ffffffffffffffff811115612e9f57612e9e613f79565b5b612eab89828a01612ca3565b9450506060612ebc89828a01612d3d565b9350506080612ecd89828a01612d3d565b92505060a087013567ffffffffffffffff811115612eee57612eed613f79565b5b612efa89828a01612c75565b9150509295509295509295565b60008060408385031215612f1e57612f1d613f7e565b5b6000612f2c85828601612d3d565b9250506020612f3d85828601612d3d565b9150509250929050565b600080600060608486031215612f6057612f5f613f7e565b5b6000612f6e86828701612d3d565b9350506020612f7f86828701612d3d565b9250506040612f9086828701612d3d565b9150509250925092565b6000612fa683836134cf565b905092915050565b6000612fba838361350c565b905092915050565b6000612fce83836135b6565b905092915050565b6000612fe283836136d6565b60408301905092915050565b612ff781613d44565b82525050565b61300681613d44565b82525050565b600061301782613be9565b6130218185613c54565b93508360208202850161303385613ba9565b8060005b8581101561306f57848403895281516130508582612f9a565b945061305b83613c20565b925060208a01995050600181019050613037565b50829750879550505050505092915050565b600061308c82613bf4565b6130968185613c65565b9350836020820285016130a885613bb9565b8060005b858110156130e457848403895281516130c58582612fae565b94506130d083613c2d565b925060208a019950506001810190506130ac565b50829750879550505050505092915050565b600061310182613bff565b61310b8185613c76565b93508360208202850161311d85613bc9565b8060005b85811015613159578484038952815161313a8582612fc2565b945061314583613c3a565b925060208a01995050600181019050613121565b50829750879550505050505092915050565b600061317682613c0a565b6131808185613c87565b935061318b83613bd9565b8060005b838110156131bc5781516131a38882612fd6565b97506131ae83613c47565b92505060018101905061318f565b5085935050505092915050565b6131d281613d56565b82525050565b6131e181613d56565b82525050565b60006131f282613c15565b6131fc8185613c98565b935061320c818560208601613d9b565b61321581613f83565b840191505092915050565b600061322b82613c15565b6132358185613ca9565b9350613245818560208601613d9b565b61324e81613f83565b840191505092915050565b6000613266602083613ca9565b915061327182613f94565b602082019050919050565b6000613289602183613ca9565b915061329482613fbd565b604082019050919050565b60006132ac601c83613ca9565b91506132b78261400c565b602082019050919050565b60006132cf604083613ca9565b91506132da82614035565b604082019050919050565b60006132f2602283613ca9565b91506132fd82614084565b604082019050919050565b6000613315604283613ca9565b9150613320826140d3565b606082019050919050565b6000613338600e83613ca9565b915061334382614148565b602082019050919050565b600061335b602083613ca9565b915061336682614171565b602082019050919050565b600061337e601683613ca9565b91506133898261419a565b602082019050919050565b60006133a1603c83613ca9565b91506133ac826141c3565b604082019050919050565b60006133c4601483613ca9565b91506133cf82614212565b602082019050919050565b60006133e7601383613ca9565b91506133f28261423b565b602082019050919050565b600061340a603183613ca9565b915061341582614264565b604082019050919050565b600061342d600c83613ca9565b9150613438826142b3565b602082019050919050565b6000613450601783613ca9565b915061345b826142dc565b602082019050919050565b6000613473601d83613ca9565b915061347e82614305565b602082019050919050565b6000613496601683613ca9565b91506134a18261432e565b602082019050919050565b60006134b9601783613ca9565b91506134c482614357565b602082019050919050565b60006040830160008301516134e76000860182613734565b50602083015184820360208601526134ff82826131e7565b9150508091505092915050565b600060e0830160008301516135246000860182613734565b506020830151848203602086015261353c82826131e7565b91505060408301516135516040860182612fee565b506060830151848203606086015261356982826131e7565b9150506080830151848203608086015261358382826131e7565b91505060a083015161359860a0860182613734565b5060c08301516135ab60c08601826131c9565b508091505092915050565b600060c0830160008301516135ce6000860182613734565b50602083015184820360208601526135e682826131e7565b9150506040830151848203604086015261360082826131e7565b91505060608301516136156060860182612fee565b5060808301516136286080860182613734565b5060a083015161363b60a0860182613734565b508091505092915050565b600060c08301600083015161365e6000860182613734565b506020830151848203602086015261367682826131e7565b9150506040830151848203604086015261369082826131e7565b91505060608301516136a56060860182612fee565b5060808301516136b86080860182613734565b5060a08301516136cb60a0860182613734565b508091505092915050565b6040820160008201516136ec60008501826131c9565b5060208201516136ff6020850182613734565b50505050565b60408201600082015161371b60008501826131c9565b50602082015161372e6020850182613734565b50505050565b61373d81613d82565b82525050565b61374c81613d82565b82525050565b6000602082019050818103600083015261376c818461300c565b905092915050565b6000602082019050818103600083015261378e8184613081565b905092915050565b600060408201905081810360008301526137b081856130f6565b905081810360208301526137c4818461316b565b90509392505050565b600060208201905081810360008301526137e681613259565b9050919050565b600060208201905081810360008301526138068161327c565b9050919050565b600060208201905081810360008301526138268161329f565b9050919050565b60006020820190508181036000830152613846816132c2565b9050919050565b60006020820190508181036000830152613866816132e5565b9050919050565b6000602082019050818103600083015261388681613308565b9050919050565b600060208201905081810360008301526138a68161332b565b9050919050565b600060208201905081810360008301526138c68161334e565b9050919050565b600060208201905081810360008301526138e681613371565b9050919050565b6000602082019050818103600083015261390681613394565b9050919050565b60006020820190508181036000830152613926816133b7565b9050919050565b60006020820190508181036000830152613946816133da565b9050919050565b60006020820190508181036000830152613966816133fd565b9050919050565b6000602082019050818103600083015261398681613420565b9050919050565b600060208201905081810360008301526139a681613443565b9050919050565b600060208201905081810360008301526139c681613466565b9050919050565b600060208201905081810360008301526139e681613489565b9050919050565b60006020820190508181036000830152613a06816134ac565b9050919050565b60006060820190508181036000830152613a278185613646565b9050613a366020830184613705565b9392505050565b6000604082019050613a526000830184613705565b92915050565b6000602082019050613a6d6000830184613743565b92915050565b600060e082019050613a88600083018a613743565b8181036020830152613a9a8189613220565b9050613aa96040830188612ffd565b8181036060830152613abb8187613220565b90508181036080830152613acf8186613220565b9050613ade60a0830185613743565b613aeb60c08301846131d8565b98975050505050505050565b6000604082019050613b0c6000830185613743565b8181036020830152613b1e8184613646565b90509392505050565b6000613b31613b42565b9050613b3d8282613e2a565b919050565b6000604051905090565b600067ffffffffffffffff821115613b6757613b66613f31565b5b602082029050602081019050919050565b600067ffffffffffffffff821115613b9357613b92613f31565b5b613b9c82613f83565b9050602081019050919050565b6000819050602082019050919050565b6000819050602082019050919050565b6000819050602082019050919050565b6000819050602082019050919050565b600081519050919050565b600081519050919050565b600081519050919050565b600081519050919050565b600081519050919050565b6000602082019050919050565b6000602082019050919050565b6000602082019050919050565b6000602082019050919050565b600082825260208201905092915050565b600082825260208201905092915050565b600082825260208201905092915050565b600082825260208201905092915050565b600082825260208201905092915050565b600082825260208201905092915050565b6000613cc582613d82565b9150613cd083613d82565b9250827fffffffffffffffffffffffffffffffffffffffffffffffffffffffffffffffff03821115613d0557613d04613ea4565b5b828201905092915050565b6000613d1b82613d82565b9150613d2683613d82565b925082821015613d3957613d38613ea4565b5b828203905092915050565b6000613d4f82613d62565b9050919050565b60008115159050919050565b600073ffffffffffffffffffffffffffffffffffffffff82169050919050565b6000819050919050565b82818337600083830152505050565b60005b83811015613db9578082015181840152602081019050613d9e565b83811115613dc8576000848401525b50505050565b6000613dd982613d82565b91506000821415613ded57613dec613ea4565b5b600182039050919050565b60006002820490506001821680613e1057607f821691505b60208210811415613e2457613e23613ed3565b5b50919050565b613e3382613f83565b810181811067ffffffffffffffff82111715613e5257613e51613f31565b5b80604052505050565b6000613e6682613d82565b91507fffffffffffffffffffffffffffffffffffffffffffffffffffffffffffffffff821415613e9957613e98613ea4565b5b600182019050919050565b7f4e487b7100000000000000000000000000000000000000000000000000000000600052601160045260246000fd5b7f4e487b7100000000000000000000000000000000000000000000000000000000600052602260045260246000fd5b7f4e487b7100000000000000000000000000000000000000000000000000000000600052603260045260246000fd5b7f4e487b7100000000000000000000000000000000000000000000000000000000600052604160045260246000fd5b600080fd5b600080fd5b600080fd5b600080fd5b600080fd5b600080fd5b600080fd5b6000601f19601f8301169050919050565b7f47726f757020646f73656e7420657869737420636865636b2067726f75704964600082015250565b7f47726f757020697320696e416374697665206f7220646f73656e74206578697360008201527f7400000000000000000000000000000000000000000000000000000000000000602082015250565b7f496e6465782063616e74206265206c657373207468656e207a65726f00000000600082015250565b7f546f6f206d616e792063686f696365732c20436f6e7472616374206973206c6960008201527f6d6974656420746f20352063686f69636573207065722070726f706f73616c2e602082015250565b7f537461727420696e6465782063616e74206265206c657373207468656e207a6560008201527f726f000000000000000000000000000000000000000000000000000000000000602082015250565b7f416d6f756e74206f662070726f706f73616c732072657175657374656420657860008201527f636565647320616d6f756e74206f66206578697374696e672070726f706f736160208201527f6c73000000000000000000000000000000000000000000000000000000000000604082015250565b7f506f6c6c2069736e74206f70656e000000000000000000000000000000000000600082015250565b7f4e756d626572206f662070726f706f73616c732063616e74206265207a65726f600082015250565b7f436865636b20706f6c6c2073746172742074696d652e00000000000000000000600082015250565b7f416d6f756e74206f662067726f7570732072657175657374656420657863656560008201527f647320616d6f756e74206f66206578697374696e672067726f75707300000000602082015250565b7f47726f757020616c726561647920616374697665000000000000000000000000600082015250565b7f596f75206d75737420766f746520666972737400000000000000000000000000600082015250565b7f4f6e6c79207468652063726561746f722063616e2064697361626c65206f722060008201527f616374697661746520612067726f75702e000000000000000000000000000000602082015250565b7f506f6c6c2068617320656e640000000000000000000000000000000000000000600082015250565b7f50726f706f73616c20646f65736e27742065786973742e000000000000000000600082015250565b7f4e756d626572206f662067726f7570732063616e74206265207a65726f000000600082015250565b7f596f75206861766520616c726561647920766f74656400000000000000000000600082015250565b7f47726f757020616c72656164792064697361626c65642e000000000000000000600082015250565b61438981613d82565b811461439457600080fd5b5056fea26469706673582212205af3e493b4a7e23a42946c8c2afd5f6711146d9f63949efabcd0044fef79a22164736f6c63430008070033",
  "immutableReferences": {},
  "source": "// SPDX-License-Identifier: GPL-3.0\npragma solidity 0.8.7;\n\ncontract Dao {\n\n    struct Group {\n      uint256 id;\n      string name;\n      address creator;\n      string description;\n      string image; // IPFS url\n      uint256 proposalCount;\n      bool isActive;\n    }\n\n    struct Proposal {\n      uint256 id;\n      string title;\n      string description;\n      address creator;\n      uint256 proposalStart;\n      uint256 proposalEnd;\n    }\n\n    struct Choice\n    {\n      uint256 votes;\n      string description;\n    }\n\n    struct Vote\n    {\n      bool voted;  // if true, that person already voted\n      uint256 indexChoice;\n    }\n\n\n    /********************** Variables ***********************/\n    //GroupId -> ProposalId -> address -> has voted\n    mapping(uint256 => mapping(uint256 => mapping(address => Vote)) ) voteMap;\n    // GroupId -> ProposalId -> Choices Array\n    mapping(uint256 => mapping(uint256 => Choice[])) choices; // max of ten chocies;\n    // groupID -> list of Proposals\n    mapping(uint256 => Proposal[]) proposals;\n    // groupID -> Amount\n    mapping(uint256 => Group) groups;\n\n    Group[] public groupArray;\n\n    uint256 public groupIdTracker = 0;\n\n    /********************** Events ***********************/\n    event GroupCreated(uint256);\n    event GroupActivated(uint256);\n    event GroupDisabled(uint256);\n    event ProposalCreated(uint256,Proposal);\n\n    /********************** Modifiers ***********************/\n\n    modifier groupsExist(uint256 startIndex,uint256 numberOfGroups) {\n      require(startIndex >= 0, \"Index cant be less then zero\");\n      require(numberOfGroups > 0,\"Number of groups cant be zero\");\n      require((groupArray.length - startIndex) >= numberOfGroups,\"Amount of groups requested exceeds amount of existing groups\");\n      _;\n    }\n    modifier groupExist(uint256 groupId) {\n      require(groupId <= groupArray.length,\"Group dosent exist check groupId\");\n      require(groups[groupId].isActive,\"Group is inActive or dosent exist\");\n      _;\n    }\n\n    modifier groupActivate(uint256 id){\n      require(groups[id].isActive == false,\"Group already active\");\n      _;\n    }\n\n    modifier groupDisabled(uint256 id) {\n      require(groups[id].isActive == true,\"Group already disabled.\");\n      _;\n    }\n\n    modifier isCreator(uint256 id) {\n      require(msg.sender == groups[id].creator,\"Only the creator can disable or activate a group.\");\n      _;\n    }\n\n    modifier pollisActive(uint256 groupId, uint256 proposalId) {\n      require(proposals[groupId][proposalId].proposalStart <= block.timestamp, \"Poll isnt open\");\n      require(proposals[groupId][proposalId].proposalEnd >= block.timestamp,\"Poll has end\");\n\n      _;\n    }\n\n    modifier canRemove(uint256 groupId, uint256 proposalId) {\n      require(voteMap[groupId][proposalId][msg.sender].voted == true,\"You must vote first\");\n      _;\n    }\n\n    modifier hasVoted(uint256 groupId, uint256 proposalId){\n      require(voteMap[groupId][proposalId][msg.sender].voted == false,\"You have already voted\");\n      _;\n    }\n\n    modifier proposalsExist(uint256 groupId,uint256 startIndex ,uint256 numberOfProposals){\n      require(startIndex >= 0, \"Start index cant be less then zero\");\n      require(numberOfProposals > 0,\"Number of proposals cant be zero\");\n      require((proposals[groupId].length - startIndex) >= numberOfProposals,\"Amount of proposals requested exceeds amount of existing proposals\");\n      _;\n    }\n\n    modifier proposalExist(uint256 groupId, uint256 proposalId){\n      require(proposals[groupId].length >= proposalId + 1 , \"Proposal doesn't exist.\");\n      _;\n    }\n\n\n    /********************** Proposal Functions ***********************/\n    // Proposals cannot be removed or delete\n\n    function createProposal(uint256 groupId,string memory _title, string memory _description, uint256 _proposalStart, uint256 _proposalEnd, Choice[] memory _choices)\n    public\n    groupExist(groupId) // Check if groups exist\n    {\n      require(_proposalStart < _proposalEnd,\"Check poll start time.\");\n      require(_choices.length < 5, \"Too many choices, Contract is limited to 5 choices per proposal.\");\n      Proposal memory eve;\n      eve.id = groups[groupId].proposalCount; // set Proposal id to group ProposalCount\n      groups[groupId].proposalCount++; // increase proposal counter within group\n      groupArray[groupId] = groups[groupId]; // Update group in groupArray\n      eve.title = _title;\n      eve.description = _description;\n      eve.creator = msg.sender;\n      eve.proposalEnd = _proposalEnd;\n      eve.proposalStart = _proposalStart;\n\n      proposals[groupId].push(eve);\n\n      for (uint i = 0; i < _choices.length; i++) {\n        choices[groupId][eve.id].push(_choices[i]);\n      }\n\n      emit ProposalCreated(groupId,eve);\n    }\n  // [[0,\"1\"],[0,\"2\"],[0,\"3\"]]\n    function getProposalCount(uint256 groupId) public view\n    groupExist(groupId)\n    returns(uint256)\n    {\n      return(groups[groupId].proposalCount);\n    }\n\n    function getProposals(uint256 _groupId,uint256 _startIndex, uint256 _numberOfProposals) public view\n    proposalsExist(_groupId,_startIndex,_numberOfProposals)\n    returns(Proposal[] memory,Vote[] memory)\n    {\n\n      uint256 end = _startIndex + _numberOfProposals;\n      uint256 newIndex = 0;\n      Proposal[] memory mProposals = new Proposal[](_numberOfProposals); // empty array with length of number of groups\n      Vote[] memory mVotes = new Vote[](_numberOfProposals);\n\n      for(uint i = _startIndex;i < end; i++){\n          mProposals[newIndex] = proposals[_groupId][i];\n          mVotes[newIndex] = voteMap[_groupId][i][msg.sender];\n          newIndex++;\n      }\n      return (mProposals,mVotes);\n    }\n\n\n\n    // ProposalId is also the index\n    function getProposal(uint256 groupId, uint256 proposalId) public view\n    groupExist(groupId)\n    proposalExist(groupId, proposalId)\n     returns(Proposal memory,Vote memory)\n    {\n      Proposal memory p = proposals[groupId][proposalId];\n      Vote memory v = voteMap[groupId][proposalId][msg.sender];\n      return(p,v);\n    }\n\n    /********************** Choice Functions ***********************/\n\n    function getChoice(uint256 _groupId, uint256 _proposalId)\n    public\n    view\n    returns(Choice[] memory)\n    {\n       Choice[] memory cho = choices[_groupId][_proposalId];\n       return(cho);\n    }\n\n\n    /********************** Voting Functions ***********************/\n    // This is only a one to one voting, not weighted\n    function vote(uint256 _groupId, uint256 _proposalId,uint256 _choiceId) public\n    groupExist(_groupId)\n    pollisActive(_groupId,_proposalId)\n    hasVoted(_groupId,_proposalId)\n    {\n      // update poll with new vote\n      Choice memory cho = choices[_groupId][_proposalId][_choiceId];\n      cho.votes++;\n      choices[_groupId][_proposalId][_choiceId] = cho;\n\n      // Update mapping with voting details\n      voteMap[_groupId][_proposalId][msg.sender].indexChoice = _choiceId;\n      voteMap[_groupId][_proposalId][msg.sender].voted = true;\n    }\n\n    function getVote(uint256 _groupId, uint256 _proposalId) public view\n      groupExist(_groupId)\n      proposalExist(_groupId, _proposalId)\n      //hasVoted(_groupId,_proposalId)\n      returns(Vote memory)\n    {\n      Vote memory ty = voteMap[_groupId][_proposalId][msg.sender];\n      return (ty);\n    }\n\n    function removeVote(uint256 _groupId, uint256 _proposalId) public\n      groupExist(_groupId)\n      canRemove(_groupId,_proposalId)\n      pollisActive(_groupId,_proposalId)\n\n    {\n      // Choice of what address voted for\n      uint256 _choiceId = voteMap[_groupId][_proposalId][msg.sender].indexChoice;\n      // update poll with new vote\n      Choice memory cho = choices[_groupId][_proposalId][_choiceId];\n      cho.votes--;\n      choices[_groupId][_proposalId][_choiceId] = cho;\n\n      // Update mapping with voting details\n      voteMap[_groupId][_proposalId][msg.sender].indexChoice = 0;\n      voteMap[_groupId][_proposalId][msg.sender].voted = false;\n\n\n    }\n\n    /********************** Group Functions ***********************/\n\n    function newGroup(string memory _name, string memory _description, string memory _groupImage)\n    public\n    {\n        Group memory group;\n        group.creator = msg.sender;\n        group.name = _name;\n        group.proposalCount = 0; // using for indexing for proposals\n        group.description = _description;\n        group.image = _groupImage;\n        group.id = groupIdTracker;\n        group.isActive = true;\n\n        groups[groupIdTracker] = group;\n        groupArray.push(group);\n        groupIdTracker++;\n        emit GroupCreated(group.id);\n    }\n\n    // Should groups be removed??\n    function disableGroup(uint256 _groupId) public\n    isCreator(_groupId)\n    groupDisabled(_groupId)\n    {\n      // set mapping group activity to false\n      groups[_groupId].isActive = false;\n      // delete group from array\n      // This will NOT shift the elements\n      //delete groupArray[_groupId]; // keep index the same\n\n      emit GroupDisabled(_groupId);\n    }\n\n    function activateGroup(uint256 _groupId) public\n    isCreator(_groupId)\n    groupActivate(_groupId)\n    {\n      groups[_groupId].isActive = true;\n\n      emit GroupActivated(_groupId);\n    }\n\n\n\n    function getGroup(uint256 _startIndex, uint256 _numberOfGroups) public view\n    groupsExist(_startIndex,_numberOfGroups)\n    returns(Group[] memory)\n\n    {\n        uint256 end = _startIndex + _numberOfGroups;\n        uint256 newIndex = 0;\n        Group[] memory mGroups = new Group[](_numberOfGroups); // empty array with length of number of groups\n        for(uint i = _startIndex;i < end; i++){\n            mGroups[newIndex] = groupArray[i];\n            newIndex++;\n        }\n        return (mGroups);\n    }\n\n\n\n}\n",
  "sourcePath": "/Users/mitch/Documents/SmartContracts/CryptaDAO/contracts/DAO.sol",
  "compiler": {
    "name": "solc",
    "version": "0.8.7+commit.e28d00a7.Emscripten.clang"
  },
  "schemaVersion": "3.4.7",
  "updatedAt": "2022-07-15T07:24:14.369Z",
  "networkType": "ethereum",
  "devdoc": {
    "kind": "dev",
    "methods": {},
    "version": 1
  },
  "userdoc": {
    "kind": "user",
    "methods": {},
    "version": 1
  }
}